:020000040800F2
:1000000000200020C124000809250008152500084B
:100010001D250008252500082D25000800000000EA
:10002000000000000000000000000000352500086E
:1000300041250008000000004D2500085925000852
:1000400005250008052500080525000805250008E8
:1000500005250008052500080525000805250008D8
:1000600065250008A1250008ED25000805250008E4
:1000700005250008052500080525000805250008B8
:1000800005250008052500080525000800000000DA
:1000900000000000000000000000000039260008F9
:1000A0000525000805250008052500080525000888
:1000B0000525000805250008052500080525000878
:1000C0000525000805250008052500080525000868
:1000D0000525000805250008052500080525000858
:1000E0004D27000805250008052500080000000030
:1000F0000000000000000000000000000000000000
:1001000000000000000000000000000000000000EF
:10011000000000000000000005250008052500087B
:1001200000000000000000000000000000000000CF
:1001300000000000000000000000000000000000BF
:1001400000000000000000000000000000000000AF
:10015000000000000000000000000000000000009F
:10016000000000000000000000000000000000008F
:10017000000000000000000000000000000000007F
:10018000000000000000000000000000000000006F
:10019000000000000000000000000000000000005F
:1001A000000000000000000000000000000000004F
:1001B000000000000000000000000000000000003F
:1001C0000000000000000000000000005FF808F1DF
:1001D000032A2DE9F00109D82AB10023CC5CC454CC
:1001E00001339342FAD1BDE8F00170470B46821803
:1001F000014603E02478013301F8014B11F0030FAD
:100200001C46F7D113F003055DD06E42C5F1040C16
:10021000ED009B594FEACC0C08E00434A7593B464B
:1002200007FA0CF748EA070741F8047B571A23FA44
:1002300005F8032FF1DC03E014F8013B01F8013B62
:100240008A42F9D8CFE753F8404C41F8404C53F874
:100250003C4C41F83C4C53F8384C41F8384C53F87E
:10026000344C41F8344C53F8304C41F8304C53F88E
:100270002C4C41F82C4C53F8284C41F8284C53F89E
:10028000244C41F8244C53F8204C41F8204C53F8AE
:100290001C4C41F81C4C53F8184C41F8184C53F8BE
:1002A000144C41F8144C53F8104C41F8104C53F8CE
:1002B0000C4C41F80C4C53F8084C41F8084C53F8DE
:1002C000044C41F8044C561A1D460C46403340314C
:1002D0003F2EB8DC2B460FE053F8101C44F8101CDE
:1002E00053F80C1C44F80C1C53F8081C44F8081C68
:1002F00053F8041C44F8041C161B21461D461034F8
:1003000010330F2EE8DC2B4602E0246841F8044B42
:10031000551A1C46032D03F10403F6DC90E700BFD9
:10032000032AC9B270B408D82AB10346121803F8D8
:10033000011B9342FBD170BC70478218044601E058
:1003400004F8011B14F0030FFAD14FF0013303FB43
:1003500001F31FE044F8403C44F83C3C44F8383C8E
:1003600044F8343C44F8303C44F82C3C44F8283CF5
:1003700044F8243C44F8203C44F81C3C44F8183C25
:1003800044F8143C44F8103C44F80C3C44F8083C55
:1003900044F8043C161B254640343F2EDADC2C463C
:1003A00007E044F8103C44F80C3C44F8083C44F89E
:1003B000043C161B254610340F2EF2DC01E045F8F4
:1003C000043B541B032CFADC01E005F8011B9542A9
:1003D000FBD3B0E720F0030110F00300C0F10000F0
:1003E00051F8043B00F1040C4FEACC0C6FF0000212
:1003F0001CBF22FA0CF213434FF0010C4CEA0C2CF8
:100400004CEA0C4CA3EB0C0222EA030212EACC12D7
:1004100004BF51F8043B0430F4D013F0FF0F1FBFAA
:10042000013013F47F4F013013F47F0F18BF0130F8
:10043000704700BF80B483B000AF0346FB71094B27
:1004400097F907204FEA5212F97901F01F014FF096
:10045000010000FA01F143F8221007F10C07BD4634
:1004600080BC704700E100E080B483B000AF034679
:100470003960FB7197F90730002B0DDA0E49FB79D3
:1004800003F00F03A3F104033A68D2B24FEA021259
:10049000D2B2CB181A760AE0084997F907303A68C1
:1004A000D2B24FEA0212D2B2CB1883F8002307F17E
:1004B0000C07BD4680BC704700ED00E000E100E0A5
:1004C00080B582B000AF78607A686FF07F439A425F
:1004D00002D94FF0010316E00D4B7A6822F07F42FB
:1004E00002F1FF325A604FF0FF304FF00F01FFF77B
:1004F000BBFF074B4FF000029A60054B4FF007021D
:100500001A604FF00003184607F10807BD4680BD8A
:1005100010E000E080B582B000AF78600A4B7A68E6
:100520001A60094B4FF000021A71074B4FF00C0292
:100530005A71054B4FF001029A71034801F0DCFC3F
:1005400007F10807BD4680BDA404002080B500AFB8
:1005500055484FF0010101F09FFE54484FF0010152
:1005600001F09AFE524B4FF04802DA70504B4FF0B8
:10057000F8021A804E4B4FF002029A704D484C49D7
:1005800001F070FD4A4B4FF004021A804A48484976
:1005900001F068FD464B4FF4C8521A804748444961
:1005A00001F060FD424B4FF400721A80444840490C
:1005B00001F058FD4FF001004FF0030101F0EEFE95
:1005C0004FF001004FF0040101F0E8FE4FF0010090
:1005D0004FF0050101F0E2FE4FF001004FF006017F
:1005E00001F0DCFE4FF001004FF0070101F0D6FEF4
:1005F0004FF003004FF0020101F0D0FE4FF0000079
:100600004FF0080101F0CAFE4FF000004FF00B015F
:1006100001F0C4FE4FF000004FF00C0101F0BEFEEF
:100620004FF002004FF0090101F0B8FE4FF0040056
:10063000FFF770FF4FF00800FFF76CFF4FF010005E
:10064000FFF768FF4FF02000FFF764FF4FF0400016
:10065000FFF760FF4FF08000FFF75CFF4FF4807002
:10066000FFF758FF4FF40070FFF754FF4FF400609E
:10067000FFF750FF4FF48050FFF74CFF4FF008009A
:10068000FFF7D8FE4FF00900FFF7D4FE4FF00A0045
:10069000FFF7D0FE4FF01700FFF7CCFE4FF0280019
:1006A000FFF7C8FE80BD00BF00013000000230002F
:1006B00088040020000C01400014014000080140A3
:1006C0000010014080B584B002AF914B1A68914B85
:1006D000A3FB02134FEA93131846FFF7F1FE4FF006
:1006E0003D004FF0010101F0A7FE4FF400304FF044
:1006F000010101F0C3FEFFF729FF874B4FF0140201
:100700001A80854B4FF01002DA70834B4FF00102D4
:100710009A708248804901F0A5FC7F4B4FF010028F
:10072000DA707D4B4FF001021A807B4B4FF00202D2
:100730009A707B48784901F095FC774B4FF0100296
:10074000DA70754B4FF002021A80734B4FF00202C1
:100750009A707248704901F085FC71484FF00101B0
:1007600001F07EFD4FF00003FB710EE0FA79FB799A
:100770006C494FF00000C8546A49CB5CD9B26A4B4F
:100780009954FB7903F10103FB71FB79092BEDD936
:10079000664B4FF001021A70654B4FF001021A7060
:1007A000644B4FF000021A70634B644A1A60644B4A
:1007B0004FF001021A7000F0DFFA4FF0010000F074
:1007C0005DFB604B00934FF000004FF000014FF0D5
:1007D00008024FF0600300F09FFC5B4B4FF47A700F
:1007E000984700F013FB4FF00700584900F074FCE5
:1007F0004E4B1B78002B13D101F032FA4C4B1B7877
:100800001A46534B53F82220494B1B781946514B3B
:1008100053F821309BB21046194601F059FB65E0B0
:10082000434B1A78434B1B789A424BD000F0EEFAB8
:10083000494B00934FF004004FF051014FF001027B
:100840004FF0040300F068FC3A4B1B78002B0DD0EE
:10085000384B1B7803F1FF32404B53F822304FF0F6
:1008600003004FF014011A4600F004FC314B1B78D2
:100870001A463A4B53F822304FF004004FF014015F
:100880001A4600F0F7FB2B4B1B78152B0DD8294B84
:100890001B7803F10102314B53F822304FF0050071
:1008A0004FF014011A4600F0E5FB224B1A78204B5A
:1008B0001A70214B1B684FF000004FF000011A46E0
:1008C00000F0D8FB1E4B1B78002B0CD01A4B1B687A
:1008D0004FF000004FF000011A4600F0CBFB184B20
:1008E0004FF000021A701E4B984781E701F082FA20
:1008F000154B4FF0050098471A4B1B78002B74D00E
:100900004FF012037B715EE04FF01403BB7153E0B4
:1009100050010020D34D62108804002000080140DF
:10092000001001407C0400205C0400209C04002096
:10093000750400207404002078040020B800002012
:100940006C0400202C2B0008B90C0008E8290008D2
:1009500000000020F45B0008F05B00085C00002051
:10096000010A0008EC1400207B79A3F112034FEA7E
:100970008312BB79A3F11403D3181D4AD35C002B57
:100980000BD1BB79C3F16403DAB27B791046194607
:100990004FF0000200F04AFC0AE0BB79C3F16403A7
:1009A000DAB27B79104619464FF0010200F03EFCA6
:1009B000BB7903F10103BB71BB79532BD4D97B798C
:1009C00003F101037B717B79312B9DD9094B4FF0EA
:1009D00000021A7000F016FC074B1B684FF0000075
:1009E0004FF000011A4600F045FB044B98477DE7A5
:1009F00004150020EC14002078040020590B000896
:100A000080B582B002AF4C4B1B78DBB2002B12D00A
:100A10004A484FF4807101F005FC0346002B0AD0D0
:100A2000474B1B7803F1FF33DAB2454B1A70424B48
:100A30004FF000021A70404B9B78DBB2002B12D0B3
:100A40003E484FF4805101F0EDFB0346002B0AD0E5
:100A50003B4B1B7803F10103DAB2394B1A70364B6A
:100A60004FF000029A70344BDB79DBB2002B0FD0D1
:100A700034484FF0040101F0D5FB0346002B07D0AA
:100A8000314B4FF000021A702B4B4FF00002DA711D
:100A9000294B1B7ADBB2002B1ED02C484FF00801EB
:100AA00001F0C0FB0346002B16D029484FF001018E
:100AB00001F0B8FB0346002B05D025484FF001019B
:100AC00001F0DCFB04E022484FF0010101F0C8FB1B
:100AD000194B4FF000021A72174B5B7ADBB2002BF6
:100AE00017D01A484FF0100101F09CFB0346002B71
:100AF0000FD0184B00934FF000004FF000014FF063
:100B000008024FF0600300F007FB0B4B4FF00002B0
:100B10005A720B4B1B78FF2B03D1094B4FF0160277
:100B20001A70074B1B78162B03D9054B4FF00002A8
:100B30001A70BD4680BD00BF7C0400200008014043
:100B400074040020001401409C040020000C0140AB
:100B5000001001402C2E000880B582B000AF45483F
:100B60004FF4807101F05EFB03463B7141484FF446
:100B7000805101F057FB03467B713F484FF4006101
:100B800001F050FB0346FB713B484FF4007101F04C
:100B900049FB0346BB71394B1B78DBB2002B0BD0F2
:100BA0003B79002B08D0364B4FF001021A71334BC2
:100BB0004FF000021A7008E0304B1B78DBB2002BBC
:100BC00003D12F4B4FF000021A712C4B9B78DBB2F4
:100BD000002B0BD07B79002B08D0294B4FF0010262
:100BE0005A73264B4FF000029A7008E0234B9B7813
:100BF000DBB2002B03D1224B4FF000025A731F4B84
:100C00005B78DBB2002B0BD0BB79002B08D01C4BE0
:100C10004FF001029A71194B4FF000025A7008E030
:100C2000164B5B78DBB2002B03D1154B4FF0000263
:100C30009A71124BDB78DBB2002B0BD0FB79002BC7
:100C400008D00F4B4FF001025A710C4B4FF00002CD
:100C5000DA700BE0094B9B78DBB2084AD35CDBB25D
:100C6000002B03D1064B4FF000025A7107F1080721
:100C7000BD4680BD00080140001001407C040020FA
:100C8000F014002080B400AF094B1B6803F101028F
:100C9000074B1A60074B1B68002B05D0054B1B68E0
:100CA00003F1FF32034B1A60BD4680BC704700BFA2
:100CB000680400207004002080B483B000AF786026
:100CC000064B7A681A6000BF044B1B68002BFBD1EF
:100CD00007F10C07BD4680BC704700BF70040020C0
:100CE00080B400AFBD4680BC704700BF80B485B003
:100CF00000AF02460B46FA71BB71BB79002B04D0E2
:100D00001C4B4FF004021A6103E01A4B4FF004022F
:100D10005A61184B4FF010021A61164B4FF0100237
:100D20005A614FF00003FB601CE0FB795BB2002BC3
:100D300004DA104B4FF004021A6103E00D4B4FF040
:100D400004025A610B4B4FF010021A61094B4FF02D
:100D500010025A61FB794FEA4303FB71FB6803F110
:100D60000103FB60FB68072BDFDD07F11407BD46BD
:100D700080BC70470008014080B582B000AFFFF72B
:100D8000AFFF1E4B4FF002025A614FF0E2004FF0EE
:100D90000001FFF7ABFF1A4B7B60FFE77B6803F1B5
:100DA000FF337B607B68002BF8D14FF0A4004FF03D
:100DB0000001FFF79BFF4FF02F004FF00001FFF7FE
:100DC00095FF4FF0AF004FF00001FFF78FFF0D4B85
:100DD0001B889BB203F04003002BF8D0074B4FF069
:100DE00002021A61084A13686FF30003136000F0EF
:100DF0000DF807F10807BD4680BD00BF000801409F
:100E0000B0AD010000440040AC04002080B582B0C9
:100E100000AF00F05FF8164B4FF002025A614FF03E
:100E200000037B6009E04FF000004FF00101FFF785
:100E30005DFF7B6803F101037B607A6840F25F33FA
:100E40009A42F0DD0B4B1B889BB203F04003002B52
:100E5000F8D0074B4FF002021A6107484FF000012B
:100E60004FF44072FFF75CFA07F10807BD4680BDFA
:100E700000080140004400405401002080B582B0C9
:100E800000AF0346FB71114B4FF002025A61FB7930
:100E9000002B06D04FF0C8004FF00001FFF726FFEF
:100EA00005E04FF0C0004FF00001FFF71FFF084BB7
:100EB0001B889BB203F04003002BF8D0034B4FF08C
:100EC00002021A6107F10807BD4680BD0008014013
:100ED0000044004080B500AF104B4FF002025A6151
:100EE0004FF0B0004FF00001FFF700FF4FF010008F
:100EF0004FF00001FFF7FAFE4FF000004FF0000145
:100F0000FFF7F4FE064B1B889BB203F04003002B57
:100F1000F8D0024B4FF002021A6180BD0008014078
:100F20000044004080B586B000AF13460246FA7117
:100F30000A46BA717B717B7903F1010213464FEACD
:100F400083039B1803F1FF32464BD3183B61464B9A
:100F50004FF002025A61FB7903F00F03DBB263F03A
:100F60004F03DBB2DBB218464FF00001FFF7BEFEC5
:100F7000BB794FEA1313DBB243F01003DBB2184620
:100F80004FF00001FFF7B2FEBB7903F00F03DBB2B5
:100F900018464FF00001FFF7A9FE4FF000037B61F8
:100FA0002EE03B691B78FB733B6903F1FF333B6128
:100FB0002E4B1B7803F00103DBB2002B03D0FB7B2D
:100FC0006FEA0303FB73FB7B18464FF00101FFF749
:100FD0008DFEBB7903F10103BB71BB795F2B0BD98C
:100FE000234B1B889BB203F04003002BF8D01E4B11
:100FF0004FF002021A6130E07B6903F101037B616B
:101000007B69042BCDDD4FF000037B6117E0174BAC
:101010001B7803F00103DBB2002B06D04FF0FF007A
:101020004FF00101FFF762FE05E04FF000004FF0C6
:101030000101FFF75BFE7B6903F101037B617B69C3
:10104000002BE4DD0A4B1B889BB203F04003002B0E
:10105000F8D0054B4FF002021A6107F11807BD46A0
:1010600080BD00BF505C000800080140AC040020B7
:101070000044004080B584B000AF0B463A600246A1
:10108000FA71BB71BB79C3F15B03BB710EE0F979F7
:10109000BA79FB7B084611461A46FFF743FFBB7936
:1010A000A3F10603BB71BB79002B0FD03B681B7803
:1010B000FB73FB7B002B0CBF00230123DBB23A68E0
:1010C00002F101023A60002BE1D100E000BF07F11C
:1010D0001007BD4680BD00BF80B582B000AF03469B
:1010E0003960FB713868FFF775F903461A461346F5
:1010F0004FEA43039B184FEA4303C3F160034FEAEF
:101100005303DBB2FA79104619463A68FFF7B2FF8B
:1011100007F10807BD4680BD80B584B000AFF87107
:10112000B9717A713B71344B4FF002025A614FF042
:101130000003FB734DE0FA79FB7BD318DBB2DBB223
:1011400003F00F03DBB263F04F03DBB2DBB21846F0
:101150004FF00001FFF7CAFDBB794FEA1313DBB272
:1011600043F01003DBB218464FF00001FFF7BEFD5D
:10117000BB7903F00F03DBB218464FF00001FFF715
:10118000B5FD4FF00003BB731BE0BB691B787B739D
:10119000BB6903F10103BB61184B1B7803F001032A
:1011A000DBB2002B03D07B7B6FEA03037B737B7B7B
:1011B00018464FF00101FFF799FDBB7B03F10103D6
:1011C000BB73BA7B3B799A42DFD3FB7B03F101030C
:1011D000FB73FA7B7B799A42ADD3094B1B889BB298
:1011E00003F04003002BF8D0034B4FF002021A61CA
:1011F00007F11007BD4680BD00080140AC04002087
:101200000044004080B582B002AF074B00934FF01E
:1012100000004FF000014FF008024FF06003FFF7AD
:101220007BFFBD4680BD00BF5401002080B487B065
:1012300000AF13460246FA710A46BA717B71FB7918
:101240005F2B02D8BB79432B02D94FF0FF0357E045
:10125000BB794FEAD303DBB21A4613464FEA430386
:101260009B184FEA43131A46FB79D3183B61BB79AD
:101270004FEAD303DBB21A464FEA4212D31A4FEABF
:10128000C303DAB2BB79D318FB73204A3B69D31886
:101290001B78FB757B79002B0ED1FB7B4FF0010295
:1012A00002FA03F3DBB26FEA0303DAB2FB7D02EA70
:1012B0000303DBB2FB751CE07B79012B0BD1FB7BBD
:1012C0004FF0010202FA03F3DAB2FB7D42EA0303B4
:1012D000DBB2FB750DE07B79022B0AD1FB7B4FF073
:1012E000010202FA03F3DAB2FB7D82EA0303DBB206
:1012F000FB75064A3B69D318FA7D1A704FF001035B
:10130000184607F11C07BD4680BC704754010020F9
:1013100080B483B000AF164B1B684FEAC322144B56
:101320001B6882EA03037B60124B1A68104B1A6039
:10133000114B1A680F4B1A60104B1A680E4B1A604B
:101340000E4B1B684FEAD3420C4B1B685A407B681C
:101350004FEA13217B6881EA03035A40074B1A6066
:10136000064B1B68184607F10C07BD4680BC70474A
:101370004001002044010020480100204C010020D1
:1013800080B485B000AF0346FB80FB88DBB2E02B66
:1013900002D0EE2B17D028E04FF00003FB8108E0CD
:1013A000FB89144A4FF00001D154FB8903F101037A
:1013B000FB81FA8940F2FF739A42F1D90E4B4FF04C
:1013C00001021A7011E00D4BDB8E03F1FF339AB26C
:1013D0000A4BDA86094BDB8E1A46084B02F10802EB
:1013E00033F81220054B9A8600BF07F11407BD465B
:1013F00080BC704704150020EC140020B0040020CD
:1014000080B483B000AF0346FB80044BFA889A8611
:1014100007F10C07BD4680BC704700BFB004002038
:1014200080B483B000AF0346FB800F4BDB8E1A46BF
:101430000D4B998E0C4B02F1080223F812100A4B47
:10144000DB8E03F101039AB2074BDA86FB884FEA81
:1014500003534FEA13539AB2034B9A8607F10C07D2
:10146000BD4680BC704700BFB004002080B483B08C
:1014700000AF0346FB80FB884FEA13239BB21A465A
:101480000A4BD3181B781A46FB8803F0FF039A42D5
:1014900006D1064B9B8E03F102039AB2034B9A8648
:1014A00007F10C07BD4680BC704700BFB0040020A8
:1014B00080B483B000AF0346FB80FB884FEA132360
:1014C0009BB21A460A4BD3181B781A46FB8803F0C6
:1014D000FF039A4206D0064B9B8E03F102039AB299
:1014E000034B9A8607F10C07BD4680BC704700BFCE
:1014F000B004002080B483B000AF0346FB80FB88BB
:101500004FEA13239BB21A460C4BD3181A78FB8868
:101510004FEA13139BB203F00F01084BCB181B7853
:101520009A4206D1054B9B8E03F102039AB2034BFC
:101530009A8607F10C07BD4680BC7047B0040020B6
:1015400080B483B000AF0346FB80FB884FEA1323CF
:101550009BB21A46044BD318FA88D2B21A7007F11C
:101560000C07BD4680BC7047B004002080B483B037
:1015700000AF0346FB80FB884FEA13239BB21A4659
:10158000094BD318FA884FEA122292B21146064A42
:101590008A181178FA88D2B28A18D2B21A7007F172
:1015A0000C07BD4680BC7047B004002080B483B0F7
:1015B00000AF0346FB80FB884FEA13239BB21A4619
:1015C0000C4BD3181A78FB884FEA13139BB203F025
:1015D0000F01084BCB181B789A4206D0054B9B8E07
:1015E00003F102039AB2034B9A8607F10C07BD463A
:1015F00080BC7047B004002080B483B000AF0346C5
:10160000FB80044BFA885A8607F10C07BD4680BC64
:10161000704700BFB004002080B483B000AF034621
:10162000FB80064B1B781A46FB88D3189AB2034BF3
:101630009A8607F10C07BD4680BC7047B0040020B5
:1016400090B583B000AF0346FB80FB884FEA1323BD
:101650009BB21A46074BD418FFF75AFE0346DAB27C
:10166000FB88DBB202EA0303DBB2237007F10C074D
:10167000BD4690BDB004002080B487B000AF0346E3
:10168000FB80FB884FEA13239BB21A463C4BD318CE
:101690001B7803F03F037B73FB884FEA13139BB265
:1016A00003F00F02364BD3181B7803F01F037B7433
:1016B000334B5B8EFB817B7C4FEA83131A46314BA5
:1016C000D3187B61FB88DBB203F00F03FB74FA7C59
:1016D0007B7CD318202B03DD7B7CC3F12003FB74C0
:1016E0004FF001033B7438E0FB894FEA03534FEAA4
:1016F0001353254AD35C7B74FB8903F10103FB81FF
:101700007B7BBB741EE07B7C5BB2002B0FDABB7C67
:101710007A69D318BA7C79698A1812786FEA02025A
:10172000D2B21A701A783B7C02EA03033B747B7CCA
:101730004FEA43037B74BB7C03F10103DBB203F08C
:101740003F03BB747B7C002BDDD1FB7C03F1FF33BB
:10175000FB747B6903F140037B61FB7C002BC3D1ED
:101760003B7C83F00103DAB2054BDA73074B4FF091
:1017700001021A7007F11C07BD4680BC704700BF0C
:10178000B004002004150020EC040020EC1400201C
:1017900080B483B000AF0346FB80FB8803F0FF03F7
:1017A0009E2B02D0A12B14D028E0FB884FEA1323F4
:1017B0009BB21A46144BD3181B78144AD35C002BE7
:1017C0001BD0114B9B8E03F102039AB20E4B9A86EB
:1017D00014E0FB884FEA13239BB21A460A4BD31836
:1017E0001B780A4AD35C002B08D1074B9B8E03F170
:1017F00002039AB2044B9A8600E000BF07F10C077F
:10180000BD4680BC704700BFB0040020F01400202B
:1018100080B485B000AF0346FB80FB884FEA1323FA
:101820009BB21A46794BD318BB60FB88DBB21E2BE8
:1018300055D01E2B0BDC0A2B1DD00A2B02DC072BEC
:1018400013D012E1152B3ED0182B42D00DE1332BD3
:101850005BD0332B02DC292B4AD006E1552B00F05C
:101860009580652B00F0C580FFE0684B93F8302031
:10187000BB681A70F9E04FF000037B734FF0000370
:10188000FB730EE0FB7B624AD35C002B05D0BB6888
:10189000FA7B1A704FF001037B73FB7B03F10103AA
:1018A000FB73FB7B0F2BEDD97B7B83F00103DBB25A
:1018B000002B00F0D980554B9B8EA3F102039AB206
:1018C000524B9A86D1E0BB681A78504B83F830208F
:1018D000CBE0BB681A784D4B83F83120C5E04B4B09
:1018E0005A8EBB681B78D3189AB2484B5A86BCE014
:1018F000BB681B7803F00F039BB21A464FEA8202C3
:10190000D3189AB2414B5A86AFE0BB681B78FB7381
:101910004FF00003BB7307E0BB7B03F10103BB7314
:10192000FB7BA3F16403FB73FB7B632BF4D8374B86
:101930005B8E4FEA03534FEA1353364AB97BD154B7
:101940004FF00003BB7307E0BB7B03F10103BB73E4
:10195000FB7BA3F10A03FB73FB7B092BF4D82B4B16
:101960005B8E03F101034FEA03534FEA1353294AF5
:10197000B97BD154254B5B8E03F102034FEA03532D
:101980004FEA1353234AF97BD1546EE04FF0000322
:10199000FB73FB884FEA13239BB2DBB203F00F0308
:1019A000BB7311E0194B5B8E1A46FB7BD3184FEAD1
:1019B00003534FEA1353FA7B1449895C154AD154F7
:1019C000FB7B03F10103FB73FA7BBB7B9A42E9D9F2
:1019D0000E4B5A8EFB884FEA13239BB203F00F0382
:1019E0009BB2D3189BB203F101039AB2074B5A86FC
:1019F0003BE04FF00003FB73FB884FEA13239BB2DD
:101A0000DBB203F00F03BB7318E000BFB00400208B
:101A1000F0140020EC040020FA7B164B5B8E194674
:101A2000FB7BCB184FEA03534FEA13531249C95CAF
:101A3000104B9954FB7B03F10103FB73FA7BBB7BD7
:101A40009A42E9D90B4B5A8EFB884FEA13239BB27B
:101A500003F00F039BB2D3189BB203F101039AB2B8
:101A6000044B5A8600BF00E000BF07F11407BD46D3
:101A700080BC7047B0040020EC04002080B483B028
:101A800000AF78600B46FB707B68FA781A7007F13C
:101A90000C07BD4680BC704780B483B000AF78604F
:101AA0000B46FB707B681A78FB7842EA0303DAB2D4
:101AB0007B681A7007F10C07BD4680BC704700BFF9
:101AC00080B483B000AF78600B46FB707B681A78F7
:101AD000FB7802EA0303DAB27B681A7007F10C079D
:101AE000BD4680BC704700BF80B483B000AF786053
:101AF0000B46FB707B681A78FB7882EA0303DAB244
:101B00007B681A7007F10C07BD4680BC704700BFA8
:101B100080B485B000AF78600B46FB707B681B78A3
:101B20001A46FB789BB2D318FB81FB89DAB27B683B
:101B30001A70FB894FEA13239BB2DAB2034BDA73B4
:101B400007F11407BD4680BC704700BFB0040020F9
:101B500080B485B000AF78600B46FB707B681B7863
:101B60001A46FB789BB2D31AFB81FB89DAB27B68F9
:101B70001A70FB894FEA13239BB2DBB203F1010316
:101B8000DAB2034BDA7307F11407BD4680BC704725
:101B9000B004002080B483B000AF78600B46FB70C7
:101BA0007B681B7803F00103DAB2074BDA737B68BA
:101BB0001B784FEA5303DAB27B681A7007F10C07FF
:101BC000BD4680BC704700BFB004002080B485B023
:101BD00000AF78600B46FB70FB789AB27B681B788D
:101BE000D31AFB81FB89DAB27B681A70FB894FEA52
:101BF00013239BB2DBB203F10103DAB2034BDA73B6
:101C000007F11407BD4680BC704700BFB004002038
:101C100080B483B000AF78600B46FB7007F10C070F
:101C2000BD4680BC704700BF80B483B000AF786011
:101C30000B46FB707B681B784FEAD313DAB2074B75
:101C4000DA737B681B784FEA4303DAB27B681A7059
:101C500007F10C07BD4680BC704700BFB0040020F0
:101C600080B483B000AF4FF00003FB80474B4FF4CC
:101C700000729A86454B4FF00002DA86434B4FF0D4
:101C800000025A86414B4FF0000283F830203F4B50
:101C90004FF0000283F831204FF00003FB8008E092
:101CA000FB883B4A4FF00001D154FB8803F101034C
:101CB000FB80FA8840F2FF739A42F1D94FF000039B
:101CC000FB8008E0FB88314A4FF00001D154FB88CB
:101CD00003F10103FB80FB880F2BF3D94FF00003C6
:101CE000FB800BE0FA88294B02F108024FF000015B
:101CF00023F81210FB8803F10103FB80FB880F2BF4
:101D0000F0D94FF00003FB8008E0FB88214A4FF038
:101D10000001D154FB8803F10103FB80FA8840F6EF
:101D2000FF739A42F1D94FF00003FB8008E0FB8873
:101D3000194A4FF00001D154FB8803F10103FB80E5
:101D4000FB880F2BF3D94FF00003FB800DE0FB88DD
:101D50004FEA03534FEA1353FA881049895C0D4A3E
:101D6000D154FB8803F10103FB80FB884F2BEED994
:101D70000B4B4FF001021A700A4B4FF001021A7020
:101D800007F10C07BD4680BC704700BFB0040020BF
:101D900004150020EC040020F0140020506100081D
:101DA000E8040020EC14002080B582B000AF0346A8
:101DB000FB80FB8803F00F020C4B53F82230FA88AB
:101DC0004FEA122292B21146094A8918FA884FEA5C
:101DD000121292B202F00F00054A821812780846D9
:101DE0001146984707F10807BD4680BDC000002096
:101DF000B004002080B582B000AF4FF01E03FB712D
:101E000031E02F4B9B8E4FEA03534FEA13532D4A79
:101E1000D35C4FEA03239AB2294B9B8E03F1010353
:101E20004FEA03534FEA13532649CB5CD318BB80C8
:101E3000234B9B8E03F102039AB2214B9A86BB88F7
:101E40004FEA13339BB21A461F4B53F82220BB882C
:101E50004FEA03534FEA13539BB218469047FB795E
:101E600003F1FF33FB71FB79002BCAD1144B93F8BC
:101E70003030002B08D0124B93F8303003F1FF3391
:101E8000DAB20F4B83F830200D4B93F83130002B32
:101E900011D00B4B93F83130012B03D10B4B4FF08A
:101EA00001021A70064B93F8313003F1FF33DAB2B6
:101EB000034B83F8312007F10807BD4680BD00BF02
:101EC000B0040020EC0400200001002000150020D8
:101ED00080B582B000AF78600B467B80054A7B8876
:101EE000104679681A46FEF773F907F10807BD46F0
:101EF00080BD00BFEC06002080B485B000AF7860E4
:101F00004FF00003FB603A4BFB607B689B79002B32
:101F100059D0374B364A11687A6812686FEA020264
:101F200001EA02021A60324B314A51687A6812683B
:101F30006FEA020201EA02025A607B681B79FA68C2
:101F4000D318FB60FB68FA6811687A68126841EA86
:101F500002021A60264B264A91687A6812686FEA74
:101F6000020201EA02029A60214B214AD1687A6892
:101F700012686FEA020201EA0202DA607B685B79AA
:101F8000102B10D11A4B1A4A91687A68126841EAEC
:101F900002029A60164B164AD1687A68126841EAC2
:101FA0000202DA601EE0124BFB607B685B79FA6824
:101FB000D318FB60FB68FA6811687A68126841EA16
:101FC00002021A600EE07B681B79FA68D318FB6086
:101FD000FB68FA6811687A6812686FEA020201EA1F
:101FE00002021A6007F11407BD4680BC704700BFAB
:101FF0000004014080B485B000AF78604FF000036A
:10200000FB734FF00003BB600E4B1A687B6802EA5B
:102010000303BB600B4B5A697B6802EA0303002B86
:1020200006D0BB68002B03D04FF00103FB7302E026
:102030004FF00003FB73FB7B184607F11407BD4606
:1020400080BC70470004014080B483B000AF78606A
:10205000034B7A685A6107F10C07BD4680BC704794
:102060000004014080B489B000AF786039604FF05F
:102070000003FB614FF000033B614FF00003BB61C5
:102080004FF00003FB604FF000037B614FF0000353
:10209000BB603B68DB7803F00F03FB613B68DB78D8
:1020A00003F01003002B05D03B689B78FA6942EAE5
:1020B0000303FB613B681B8803F0FF03002B51D037
:1020C0007B681B687B614FF00003BB6144E0BB6928
:1020D0004FF0010202FA03F3FB603B681B881A46CB
:1020E000FB6802EA03033B613A69FB689A422FD11D
:1020F000BB694FEA8303FB60FB684FF00F0202FAF3
:1021000003F3BB60BB686FEA03037A6902EA030367
:102110007B61FB68FA6902FA03F37A6942EA030316
:102120007B613B68DB78282B07D1BB694FF001024C
:1021300002FA03F27B685A610AE03B68DB78482BBD
:1021400006D1BB694FF0010202FA03F27B681A6103
:10215000BB6903F10103BB61BB69072BB7D97B687E
:102160007A691A603B681B88FF2B56D97B685B68CD
:102170007B614FF00003BB6149E0BB6903F10803D9
:102180004FF0010202FA03F3FB603B681B881A461A
:10219000FB6802EA03033B613A69FB689A4232D169
:1021A000BB694FEA8303FB60FB684FF00F0202FA42
:1021B00003F3BB60BB686FEA03037A6902EA0303B7
:1021C0007B61FB68FA6902FA03F37A6942EA030366
:1021D0007B613B68DB78282B08D1BB6903F10803DE
:1021E0004FF0010202FA03F27B685A613B68DB7828
:1021F000482B08D1BB6903F108034FF0010202FA32
:1022000003F27B681A61BB6903F10103BB61BB691F
:10221000072BB2D97B687A695A6007F12407BD465B
:1022200080BC704780B485B000AF78600B467B807F
:102230004FF00003FB737B689A687B8802EA030314
:10224000002B03D04FF00103FB7302E04FF00003BB
:10225000FB73FB7B184607F11407BD4680BC704733
:1022600080B483B000AF78600B467B807A887B684F
:102270001A6107F10C07BD4680BC704780B483B07B
:1022800000AF78600B467B807A887B685A6107F1E3
:102290000C07BD4680BC704780B487B000AF786043
:1022A0000B46FB704FF000033B614FF00003FB60F7
:1022B0004FF000037B614FF00003BB607B68002B95
:1022C00003DA354BDB697B6102E0334B5B687B6192
:1022D0007B6803F470234FEA1343BB607B684FEACB
:1022E00003434FEA13433B617B6803F44013B3F5A8
:1022F000401F0AD17B6923F070637B61264B264A1D
:10230000526822F070625A6028E07B6803F4801300
:10231000002B11D0BB684FF0030202FA03F3FB60FD
:10232000FB686FEA03037A6902EA03037B617B6956
:1023300043F070637B6111E07B684FEA53534FEACF
:1023400003133A6902FA03F36FEA03037A6902EAB4
:1023500003037B617B6943F070637B61FB78002B37
:102360000BD07B684FEA53534FEA03133A6902FAE2
:1023700003F37A6942EA03037B617B68002B03DA8B
:10238000054B7A69DA6102E0034B7A695A6007F11A
:102390001C07BD4680BC70470000014090B484B06B
:1023A00000AF02460B46FA71BB714FF00003FB60B1
:1023B000BB7903F003034FEA83034FF00F0202FAE5
:1023C00003F3FB601B4BBA794FEA9202D2B2194970
:1023D000B8794FEA9000C0B200F1020051F8200035
:1023E000F9686FEA010100EA010102F1020243F813
:1023F0002210104BBA794FEA9202D2B20D49B87945
:102400004FEA9000C0B200F1020051F82000FC79C0
:10241000B97901F003014FEA810104FA01F140EAC0
:10242000010102F1020243F8221007F11007BD4634
:1024300090BC70470000014080B483B000AF78606A
:102440000B46FB70FB78002B07D00B4B0A4A9169B7
:102450007A6841EA02029A6108E0074B064A9169EC
:102460007A686FEA020201EA02029A6107F10C0738
:10247000BD4680BC704700BF0010024080B483B0EE
:1024800000AF78600B46FB70FB78002B07D00B4B3E
:102490000A4AD1697A6841EA0202DA6108E0074B28
:1024A000064AD1697A686FEA020201EA0202DA6139
:1024B00007F10C07BD4680BC704700BF001002400A
:1024C000002103E00A4B5B584350043109480A4B92
:1024D00042189A42F6D3094A02E0002342F8043B2C
:1024E000074B9A42F9D300F06FF9FEF7EBF870470B
:1024F000FA67000800000020540100205401002069
:10250000041D0020FEE7000080B400AFBD4680BC83
:10251000704700BF80B400AFFEE700BF80B400AFDB
:10252000FEE700BF80B400AFFEE700BF80B400AF9D
:10253000FEE700BF80B400AFBD4680BC704700BF5F
:1025400080B400AFBD4680BC704700BF80B400AF10
:10255000BD4680BC704700BF80B500AFFEF792FB60
:1025600080BD00BF80B500AF4FF00400FFF742FD13
:102570000346002B0BD0084BDB79DBB203F10103E0
:10258000DAB2054BDA714FF00400FFF75DFD034B43
:102590004FF001021A7080BD7C0400206C04002002
:1025A00080B500AF4FF00800FFF724FD0346002B75
:1025B0000ED00A4B0A4A1A600A4B1B7ADBB203F1AF
:1025C0000103DAB2074B1A724FF00800FFF73CFD27
:1025D000054B4FF001021A7080BD00BF7804002047
:1025E000C02A00087C0400206C04002080B500AFE5
:1025F0004FF01000FFF7FEFC0346002B0ED00A4BF5
:102600000A4A1A600A4B5B7ADBB203F10103DAB2C1
:10261000074B5A724FF01000FFF716FD054B4FF0B5
:1026200001021A7080BD00BF78040020CC2A000887
:102630007C0400206C04002080B500AF4FF0200027
:10264000FFF7D8FC0346002B0FD0384B384A1A60EE
:10265000384B9B79DBB203F10103DAB2354B9A7147
:102660004FF02000FFF7F0FC5AE04FF04000FFF77A
:10267000C1FC0346002B0FD02C4B2F4A1A602D4B68
:102680005B79DBB203F10103DAB22A4B5A714FF0E6
:102690004000FFF7D9FC43E04FF08000FFF7AAFCB1
:1026A0000346002B0FD0214B244A1A60214B1B7983
:1026B000DBB203F10103DAB21E4B1A714FF0800056
:1026C000FFF7C2FC2CE04FF48070FFF793FC034649
:1026D000002B0FD0154B1A4A1A60164B1B78DBB231
:1026E00003F10103DAB2134B1A704FF48070FFF755
:1026F000ABFC15E04FF40070FFF77CFC0346002BA9
:102700000ED00A4B0F4A1A600A4B5B78DBB203F11A
:102710000103DAB2074B5A704FF40070FFF794FCD4
:10272000094B4FF001021A7080BD00BF78040020F1
:10273000D82A00087C040020E42A0008F02A0008B7
:10274000FC2A0008082B00086C04002080B500AFAC
:102750004FF48050FFF74EFC0346002B0FD0154B73
:10276000154A1A60154B9B78DBB203F10103DAB20C
:10277000124B9A704FF48050FFF766FC15E04FF44F
:102780000060FFF737FC0346002B0ED0094B0C4AC4
:102790001A600A4BDB78DBB203F10103DAB2074BB4
:1027A000DA704FF40060FFF74FFC064B4FF0010268
:1027B0001A7080BD78040020142B00087C040020CF
:1027C000202B00086C04002080B500AF174B174A7F
:1027D000126842F001021A60144A144B5968144BF3
:1027E00001EA03035360114A104B1B6823F0847302
:1027F00023F4803313600D4B0C4A126822F48022BC
:102800001A600A4B094A526822F4FE025A60074BCA
:102810004FF41F029A60054B4FF00002DA6200F09D
:102820000BF8044B4FF000629A6080BD001002402C
:102830000000FFF800ED00E080B500AF00F002F806
:1028400080BD00BF80B483B000AF4FF000037B6059
:102850004FF000033B60314B304A126842F4803243
:102860001A602E4B1B6803F400333B607B6803F156
:1028700001037B603B68002B03D17B68B3F5A06F3D
:10288000EFD1264B1B6803F40033002B03D04FF02D
:1028900001033B6002E04FF000033B603B68012B0B
:1028A00037D11E4B1D4A52685A601C4B1B4A526856
:1028B0005A601A4B194A52685A60184B174A5268A4
:1028C00022F47C125A60154B144A526842F4981252
:1028D0005A60124B114A126842F080721A6000BFAF
:1028E0000E4B1B6803F00073002BF9D00B4B0B4A07
:1028F000526822F003025A60084B084A526842F0BC
:1029000002025A6000BF054B5B6803F00C03082B02
:10291000F9D107F10C07BD4680BC7047001002409A
:10292000544554524953000056455253000000008C
:10293000475545535300000057414C4C00000000E0
:1029400048494444454E00004D415A4500000000AE
:102950004252495800000000574950454F46460032
:102960005642524958000000494E56414445525380
:1029700000000000504F4E473200000054494354BD
:10298000414300004D45524C494E0000424C494ED7
:102990004B590000424C49545A00000050555A5AB5
:1029A0004C4531350000000054414E4B0000000002
:1029B00050555A5A4C450000434F4E4E45435434EF
:1029C00000000000425245414B4F555400000000AA
:1029D00053595A59475900004B414C45494400004E
:1029E0005351554153480000636869703820656D44
:1029F000756C61746F720000544554524953000065
:102A000056455253000000004755455353000000FF
:102A100057414C4C0000000048494444454E0000DA
:102A20004D415A4500000000425249580000000044
:102A3000574950454F4646005642524958000000FB
:102A4000494E56414445525300000000504F4E47F6
:102A50003200000054494354414300004D45524C5C
:102A6000494E0000424C494E4B590000424C4954DB
:102A70005A00000050555A5A4C45313500000000AC
:102A800054414E4B0000000050555A5A4C4500002E
:102A9000434F4E4E454354340000000042524541DE
:102AA0004B4F55540000000053595A5947590000E4
:102AB0004B414C4549440000535155415348000097
:102AC0005042332042352020202000005042342044
:102AD0004236202020200000504235204233202062
:102AE00020200000504236204232202020200000CA
:102AF0005042372042312020202000005041382011
:102B0000555020202020000050433920524947488A
:102B1000540000005043313220444F574E00000013
:102B200050433131204C4546540000000000000065
:102B30000000000000000000000000000000000095
:102B40000000000000000000000000000000000085
:102B50000000000000000000000000000000000075
:102B60000000000000000000000000000000000065
:102B70000000000000000000000000000000000055
:102B80000000000000000000000000000000000045
:102B90000000000000000000000000000000000035
:102BA0000000000000000000000000000000000025
:102BB0000000000000000000000000000000000015
:102BC0000000000000000000000000000000000005
:102BD00000000000000000000000000000000000F5
:102BE00000000000000000000000000000000000E5
:102BF00080C0C0E0E0E0E0E0E0E0C0C08080000035
:102C00000000000080C0C0E0E0E0E0E0E0E0E0E0E4
:102C1000E0E0E0000000000000E0E0E0E000000094
:102C2000000000E0E0E0E000000000000000000024
:102C300000E0E0E0E00000000080C0C0E0E0E0E094
:102C4000E0E0C0C0808000000000000000001C7FA9
:102C5000FFFFFFC7838383838383C7FFFFFF7F005B
:102C60000000FCFFFFFF8F07030301010101FFFFCD
:102C7000FFFFFF000000000000FFFFFFFF0000005B
:102C8000000000FFFFFFFF808080808080808080C8
:102C900080FFFFFFFF000000000F0707030303038F
:102CA000030303070F3FFFFEFCF8C0000000E0F83D
:102CB000FCFFFF1F0F0F07070F0F1FFFFDFCF000AA
:102CC0000000030F1F1F3F3E3C3C3C3C3C3CFFFFD1
:102CD000FFFFFF000000000000FFFFFFFF000000FB
:102CE000000000FFFFFFFF0F0707070707070707A1
:102CF0000FFFFFFFFF0000000000000000000000C9
:102D00000000000000C0FFFFFFFF3F000000030FB6
:102D10001F1F3F3E7C7C7C7C7C7C3E3F1F0F07005E
:102D200000000000000000000000000000007F7FA5
:102D30007F7F7F0000000000007F7F7F7F0000001A
:102D40000000007F7F7F7F00000000000000000087
:102D5000007F7F7F7F000000001F3E3E7C7C7C7CEC
:102D60007C7C3C3E1F1F0F07030100000000000099
:102D70000000000000000000000000000000000053
:102D80000000000000000000000000000000000043
:102D90000000000000000000000000000000000033
:102DA0000000000000000000000000000000000023
:102DB0000000000000000000000000000000000013
:102DC0000000000000000000000000000000000003
:102DD00000000000000000000000000000000000F3
:102DE00000000000000000000000000000000000E3
:102DF00000000000000000000000000000000000D3
:102E000000000000000000000000000000000000C2
:102E100000000000000000000000000000000000B2
:102E2000000000000000000000000000FFFFFFFFA6
:102E3000FFFFFFFFFFFFFFFFFFFFFFFFFFFFFFFFA2
:102E4000FFFFFFFFFFFFFFFFFFFFFFFFFFFFFFFF92
:102E5000FFFFFFFFFFFFFFFFFFFFFFFFFFFFFFFF82
:102E6000FFFFFFFFFFFFFFFFFFFFFFFFFFFFFFFF72
:102E7000FFFFFFFFFFFFFFFFFFFF7FFFFF7FFFFF62
:102E8000FFFFFFFFFFFFFFFFFFFFFFFFFFFFFFFF52
:102E9000FFFFFFFFFFFFFFFFFFFFFFFFFFFFFFFF42
:102EA000FFFFFFFFFFFFFFFFFFFFFFFFFFFFFFFF32
:102EB000FF7F7FFFFFFF7F7FFFFFFF7F7FFFFFFF22
:102EC0007F7FBFFFFFFFFFFFFFFFFFFFFFFFFFFF52
:102ED000FFFFFF7FFFEFFFBDFFEFFFFFFFFFEFFFF4
:102EE000FDFFF7EF7FFFFFFFFFFFFFFFFFFFFFFF8C
:102EF000FFFFFFFFFFFFFFFFFFFFFFFFFFFFFFFFE2
:102F0000FF7FFFFFFFFFFF9FDF8FF773EFAF7B7F39
:102F10007F9FBF7B7B7FBFBF7F7F7FFCFD7B7F7FF2
:102F2000AEAF7F7F7F9F8F7F7F7F8F8F77738F8FF6
:102F30008F777F8F8F8F7B7FDFBFBF7FFFFFFFFF8D
:102F4000FFF3FFFFFFF37FFFFFFFFFFFFFFFFFFF29
:102F5000FFDFFFFFFFBFCFCFFF773BEFFFFFFFFF9D
:102F60007E3F3F3F3F3F3F7F7F7FEFEEFFFFEEEE35
:102F70004E71310E0E2E31B3EEEEDE3131CECECEAD
:102F8000B1710E2F0E11010E060605050200030396
:102F90000300000101010202030105C6C73FFFFF54
:102FA000FFFF79FFFFFFFEFFFFFFFFFFFFFFFFFFB8
:102FB000FFFFFFCFFFFF3F3FC6C6DEFF3F0F879FEC
:102FC0001E2D0E020000000000800010000183870B
:102FD0009CF8E08000000000030D39860603210103
:102FE00000000000000000000080C0804080000061
:102FF0000000201030283818000C0EF939FEFFFFB1
:10300000FFBFFFFFFFFFF9FFFFFFFFFFFFFFFFFF16
:10301000FFFFFFFCFBFFFFE7F8DCD9E7EFFFFDFD5B
:10302000F9F9FDED6CECF07078F8F6F7F8F9FFFFC0
:10303000EF18380701000080402000C8460000005B
:10304000808080800000E0E6E7E71818E7E71818BE
:1030500019E6E6181C1CE0E8181010F7E71F1F1F00
:10306000EFEF1F1E7FFFFFFFFFFFFFFFFFFFFFFFD1
:10307000FFFFFFFFFFE3FFFFF3F3F3FFFFFFFFFFA0
:10308000FFFFFFFFFFFEFFFFFFFFFEFEFFFFFDFC58
:10309000FCF3E3FCF0EE8080000000011C8080C0A7
:1030A000C0808080808080FF9D9DE3E39CBCE3E343
:1030B000E39E9EE3E3E39C9CE3E3E39C9C63676302
:1030C0009CBC6363639D9F67FFFFFFFFFFFFFFFFE4
:1030D000FFFFFFFFFFFFFFFFFFFFFFFFFFFFFFFF00
:1030E000FFFFFFFFFFFFFFFFFFFFFFFFFFFFFFFFF0
:1030F000FFFFFFFFFFFFFFFFFEFEFEFEFFFFFFFFE4
:10310000FFFFFFFFFFFFFFFFFFFFFFFFFFFFFFFFCF
:10311000FFFFFFFFFFFFFFFFFFFFFFFFFFFCFCFCC8
:10312000F3F38C8D8EF7F3FCFFFFFFFFA2B423E6D1
:1031300022B67001D0113025120671FFD011601A2D
:10314000D01160253100120EC4704470121CC303EC
:10315000601E6103225CF515D0143F01123CD014AF
:1031600071FFD0142340121CE7A12272E8A122842F
:10317000E9A12296E29E12506600F615F607360087
:10318000123CD0147101122AA2C4F41E660043013D
:103190006604430266084303660CF61E00EED01474
:1031A00070FF23343F0100EED0147001233400EE91
:1031B000D014700123343F0100EED01470FF23348B
:1031C00000EED014730143046300225C23343F01FA
:1031D00000EED01473FF43FF6303225C233400EE40
:1031E0008000670568066904611F6510620700EECC
:1031F00040E0000040C0400000E04000406040006F
:103200004040600020E00000C040400000E080003E
:103210004040C00000E020006040400080E000002E
:1032200040C08000C060000040C08000C06000005E
:1032300080C040000060C00080C040000060C0004E
:10324000C0C00000C0C00000C0C00000C0C000007E
:103250004040404000F000004040404000F000008E
:10326000D014663576FF3600133800EEA2B48C1009
:103270003C1E7C013C1E7C013C1E7C01235E4B0AF3
:10328000237291C000EE71011350601B6B00D011CE
:103290003F007B01D01170013025136200EE601BEE
:1032A000D0117001302513748E108DE07EFF601BED
:1032B0006B00D0E13F001390D0E11394D0D17B019B
:1032C0007001302513864B0013A67DFF7EFF3D0164
:1032D000138223C03F0123C07A0123C080A06D0761
:1032E00080D2400475FE4502650400EEA700F25549
:1032F000A804FA33F265F0296D326E00DDE57D0534
:10330000F129DDE57D05F229DDE5A700F265A2B42E
:1033100000EE6A00601900EE37230000121A4A4DD1
:103320004E203139393120534F465457415245537D
:10333000208080FF00006300670000E0A2176000AB
:103340006100D01171FFD011710170083040122658
:103350007101A215D01270FFD01270017102311FDD
:1033600012386008611062046437650F6602D0117C
:10337000D4516801E8A162026802E8A1620468070A
:10338000E8A16201680AE8A16203680BE8A166028D
:10339000680FE8A16604680CE8A16601680DE8A161
:1033A0006603420171FF420270FF42037101420451
:1033B0007001460175FF460274FF4603750146041D
:1033C0007401D0113F0012B4D4513F0012B812560C
:1033D000770112BA730168007801380012BC00E06E
:1033E00060086104F329D0156034F729D01568000E
:1033F0007801380012D4430812E4470812E4121E80
:1034000012E4000069006E0100E06D016A016B01C9
:103410008CD08CE24C00122288D022403A401222FA
:103420006A017B063C3F7D013D3F120CF00A4005DE
:1034300089E48EE43E4012046A1C6B0D889000E023
:103440002240123EA296F833F2652256DAB57A048B
:1034500081202256DAB57A0500EE83108334833456
:103460008314A264F31E00EEE0A0A0A0E040404060
:103470004040E020E080E0E020E020E0A0A0E0206C
:1034800020E080E020E0E080E0A0E0E020202020BC
:10349000E0A0E0A0E0E0A0E020E00000121820574B
:1034A000414C4C2062792044617669642057494E32
:1034B00054455220A2E460006100621ED011D02168
:1034C000700830401220A2DF603E6101D015710506
:1034D000311A1230D0146300C40F7408650184518E
:1034E0006503660267018840780269016A046B001F
:1034F000A2DAD345D781FC0A22C46C01FC15FC0773
:103500003C001262A2DA8C708D80E99E127C44012C
:10351000127CD34574FED345EA9E128A4419128A5E
:10352000D3457402D3458754886447016503473DFA
:1035300065FD48016602481D66FEDCD1D781370172
:10354000125E8C808C456D009CD012BE7D013D05C5
:1035500012ACFC0A22C46B00125C22C47B01125C18
:10356000A2E5FB336C346D02F265F129DCD57C05F4
:10357000F229DCD500EE8080808080E0E0E0E0E0B1
:10358000FF000000121D48494444454E2120312EC1
:10359000302042792044617669642057494E544571
:1035A00052A43F60006140F155A43F6000F0550017
:1035B000E0A47E600C6108620FD01F7008F21E301C
:1035C000341235F00A00E0A4C96013610D6204D022
:1035D000147008F21E302B124BA41FFF65A42FFF9E
:1035E0005563406608C10FC20FA42FF11EF0658419
:1035F00000A42FF21EF06585008040F055A42FF145
:103600001E8050F05573FF3300126100E0600061CE
:1036100000A477D01770083020128F600071083135
:1036200020128F6C006D006E00A43FF0657001F0F9
:103630005523B96A10235D23CD8A9087D088E02373
:103640005D23CD23B9A42FF91EF0658100A42FFAC4
:103650001EF0655010132B23DF6020240123DF6050
:1036600000A42FF91EF055A42FFA1EF05576FF3650
:103670000012A5A43FF165820080153F0013018070
:10368000208120F15500E0A51960106107620ED07D
:103690001F7008F21E3030130BA43FF165841083B5
:1036A000006609240B660F8340240BF00A122523C1
:1036B000DB6080240123DBA42FFA1EF06570FF235A
:1036C000F3A441F01ED787A477D787A42FF91EF063
:1036D0006570FF23F3A441F01EDDE7A477DDE71258
:1036E000A5A471DDE7FB0ADDE73B0413714D001370
:1036F0005D7DF87CFF3B06137D4D18135D7D087CD6
:10370000013B0213894E00135D7EF87CFC3B0813DD
:10371000954E18135D7E087C043B05135DA42FFCB9
:103720001EF0654000135D89C099A0135D70FFA471
:1037300077DDE7A44123F3F01EDDE700EEA4D560BA
:1037400024610A620BD01B7008F21E303C13C100CA
:10375000EE60346110A4F1D015A4F6D01500EEA4EB
:10376000FB13E1A50A6024610D6205D0157008F213
:103770001E303C13E700EE81008114800480048039
:1037800004801500EEF015F0073000140300EEA4DD
:103790002FF333F2656523F129D5656528F229D524
:1037A0006500EE0102030408070605050607080484
:1037B00003020101020304080706050506070804C1
:1037C0000302010000FEEEC682C6EEFEFEC6C6C6BD
:1037D000FEFEC6AA82AAC6FEC6828282C6FEBAD6ED
:1037E000EED6BAFEEEEE82EEEEFE82FE82FE82FEA5
:1037F000AAAAAAAAAAFEFEFEFEFEFEFEAAD6AAD685
:10380000AAFE8B88F8888B0000000000F04848482A
:10381000F2EF848484EF0008080A008A8AAAAA5278
:103820003C9292923C00E2A3E3008BC8A89888FAED
:1038300083E282FA0028B89000EF888E888F2121D9
:10384000A160210000000000BC223C28A4898AABB2
:10385000529751D151C00000156A8A8E8A6A00645D
:103860008A8E8A6A44AAAAAA4400CCAACAAAAC6EC2
:10387000884C28CE00040C04040E0C1204081E63AD
:103880009494946338A5B8A021E101C120C1898A2C
:10389000522221CF282F28C80282020002FF808FE7
:1038A000908E819E8091919F919180FF003C40403D
:1038B000403C007C1010107C00FF00008000800065
:1038C00000008000800000FF0101010101010101F1
:1038D0000101010101FF000060006100A222C2019C
:1038E0003201A21ED0147004304012046000710432
:1038F00031201204121C8040201020408010000053
:103900006E0565006B066A00A30CDAB17A043A40D2
:1039100012087B023B1212066C206D1FA310DCD133
:1039200022F660006100A312D0117008A30ED0111E
:103930006040F015F00730001234C60F671E6801B2
:1039400069FFA30ED671A310DCD16004E0A17CFE58
:103950006006E0A17C02603F8C02DCD1A30ED67130
:1039600086848794603F8602611F8712471F12ACCE
:1039700046006801463F68FF47006901D6713F0174
:1039800012AA471F12AA600580753F0012AA6001A3
:10399000F018806061FC8012A30CD07160FE890376
:1039A00022F6750122F6456012DE124669FF80603C
:1039B00080C53F0112CA610280153F0112E08015E7
:1039C0003F0112EE80153F0112E86020F018A30EAF
:1039D0007EFF80E080046100D0113E00123012DED4
:1039E00078FF48FE68FF12EE780148026801600423
:1039F000F01869FF1270A314F533F265F1296337EB
:103A00006400D3457305F229D34500EEE000800041
:103A1000FC00AA0000000000A2CC6A0761006B084D
:103A20006000D01170087BFF3B00120A71047AFF1E
:103A30003A00120666006710A2CD6020611ED01108
:103A4000631D623F820277FF470012AAFF0AA2CBE2
:103A5000D23165FFC401340164FFA2CD6C006E0455
:103A6000EEA16CFF6E06EEA16C01D01180C4D011E6
:103A70004F01129842006401423F64FF4300650118
:103A8000431F12A4A2CBD23182448354D2313F01CE
:103A90001242431E12986A02FA187601467012AA60
:103AA000D231C401340164FFC501350165FF124202
:103AB0006A03FA18A2CBD23173FF1236A2CBD231ED
:103AC0001228A2CDD011A2F0F633F2656318641B60
:103AD000F029D3457305F129D3457305F229D34560
:103AE00012C8018044FF000000E023B66007E09E9A
:103AF0001204680067032346224A22C02366238AF1
:103B000023ACF00A225A225A22D022883A00121CF0
:103B10006C0123AC77FF23AC6078F015F007300020
:103B200012343700121C23AC6007E09E1242120AC6
:103B300000FD69106002A254D09500EE8080808064
:103B400080006001E0A112686004E0A1127200EE42
:103B5000809070FF400000EE127C80907001401B4E
:103B600000EE127C6102A254D195D105890000EECD
:103B700080A070FE300000EE80B080954F0000EE17
:103B80008100620581253F0000EEA2BAF01EF065BB
:103B90008D004B016D014B1E6DFF6C01600AF0182A
:103BA00000EEFFFF00010100CB207B016A046C01E5
:103BB0006D01A364DAB100EE80A081B08AC48BD419
:103BC000A3644B016D014B1E6DFF4A3E6CFF4A0022
:103BD0006C01D011DAB14F0000EE80A06121801598
:103BE0004F0000EE80A081B070DE71FF62FF63FFC6
:103BF0006403720180453F00130A730181453F0051
:103C000013128020813080248024813481347022FA
:103C10007101A386D0137EFF60008C076002F0184C
:103C2000238A7801238A3E0000EE236600EE00E03E
:103C300060006100621FA364D011D0217001303F89
:103C40001350D01171013120135A00EE8000610130
:103C5000630AA38660226207D013700372FF3200EA
:103C60001370710373FF3300136C6E4600EEE0A017
:103C7000E000A3A6F833F26563036402F029D3459C
:103C80007305F129D3457305F229D34500EE0000F1
:103C90000000000060146102F729D01500EE600AF0
:103CA000610C62096305A3CED015F31E700572FF87
:103CB000320013C000EE9090909060E090E090E0B1
:103CC000E090E09090202020202090906090900044
:103CD00000600000F090F08080F080F010F0E09044
:103CE000E09090001225535041434520494E5641E3
:103CF0004445525320302E39312042792044617698
:103D000069642057494E544552600061006208A31F
:103D1000DDD0187108F21E3120122D7008610030BC
:103D200040122D69056C156E002391600AF015F0A4
:103D3000073000124B23917E0112456600681C6912
:103D4000006A046B0A6C046D3C6E0F00E02375235F
:103D500051FD156004E09E127D2375380078FF2325
:103D6000756006E09E128B2375383978012375360D
:103D700000129F6005E09E12E96601651B8480A326
:103D8000D9D451A3D9D45175FF35FF12AD660012B5
:103D9000E9D4513F0112E9D4516600834073038393
:103DA000B562F883226208330012C9237D8206437C
:103DB0000812D3331012D5237D8206331812DD2367
:103DC0007D8206432012E7332812E9237D3E00134B
:103DD000077906491869006A046B0A6C047DF46E61
:103DE0000F00E023512375FD15126FF707370012FE
:103DF0006FFD1523518BA43B12131B7C026AFC3B05
:103E00000213237C026A0423513C18126F00E0A4C1
:103E1000DD60146108620FD01F7008F21E302C1391
:103E20003360FFF015F00730001341F00A00E0A7FF
:103E300006FE651225A3C1F91E61082369810623C8
:103E40006981062369810623697BD000EE80E080CA
:103E5000123000DBC67B0C00EEA3D9601CD8040036
:103E6000EE23518E2323516005F018F015F0073032
:103E700000138900EE6A008DE06B04E9A11257A6D9
:103E80000CFD1EF06530FF13AF6A006B046D016E10
:103E9000011397A50AF01EDBC67B087D017A013A63
:103EA00007139700EE3C7EFFFF99997EFFFF2424C5
:103EB000E77EFF3C3C7EDB81423C7EFFDB10387CB2
:103EC000FE00007F003F007F0000000101010303AE
:103ED000030300003F20202020202020203F08084E
:103EE000FF0000FE00FC00FE0000007E4242626215
:103EF00062620000FF0000000000000000FF000000
:103F0000FF007D00417D057D7D0000C2C2C6446C7E
:103F100028380000FF0000000000000000FF000043
:103F2000FF00F71014F7F7040400007C44FEC2C23F
:103F3000C2C20000FF0000000000000000FF0000FF
:103F4000FF00EF2028E8E82F2F0000F985C5C5C540
:103F5000C5F90000FF0000000000000000FF0000A5
:103F6000FF00BE00203020BEBE0000F704E78585BC
:103F700084F40000FF0000000000000000FF0000CB
:103F8000FF00007F003F007F000000EF28EF00E00F
:103F9000606F0000FF0000000000000000FF000054
:103FA000FF0000FE00FC00FE000000C000C0C0C01A
:103FB000C0C00000FC0404040404040404FC101049
:103FC000FFF981B98B9A9AFA00FA8A9A9A9B99F822
:103FD000E62525F434343400171434373626C7DF89
:103FE00050505CD8D8DF00DF111F121B19D97C4458
:103FF000FE868686FC84FE8282FEFE80C0C0C0FEF5
:10400000FC82C2C2C2FCFE80F8C0C0FEFE80F0C0CE
:10401000C0C0FE80BE8686FE8686FE86868610101E
:10402000101010101818184848789C90B0C0B09C18
:104030008080C0C0C0FEEE9292868686FE82868612
:1040400086867C828686867CFE82FEC0C0C07C829C
:10405000C2CAC47AFE86FE909C84FEC0FE0202FEA6
:10406000FE10303030308282C2C2C2FE828282EEC6
:1040700038108686969292EE824438384482828244
:10408000FE303030FE021EF080FE0000000006060A
:104090000000006060C00000000000001818181840
:1040A00000187CC60C1800180000FEFE0000FE82FE
:1040B000868686FE080808181818FE02FEC0C0FE94
:1040C000FE021E0606FE84C4C4FE0404FE80FE0634
:1040D00006FEC0C0C0FE82FEFE02020606067C444A
:1040E000FE8686FEFE82FE06060644FE4444FE442C
:1040F000A8A8A8A8A8A8A86C5A000C18A8304E7E9A
:10410000001218666CA85A665424660048481812B3
:10411000A80690A812007E3012A884304E7218664D
:10412000A8A8A8A8A8A8905478A848786C72A81243
:10413000186C72665490A8722A18A8304E7E00122D
:1041400018666CA87254A85A66187E184E72A87227
:104150002A183066A8304E7E006C30544E9CA8A8B9
:10416000A8A8A8A8A848547E18A890547866A86C57
:104170002A305AA88430722AA8D8A8004E12A8E47F
:10418000A2A8004E12A86C2A545472A88430722A35
:10419000A8DE9CA8722A18A80C54485A787218668F
:1041A000A866185A5466726CA8722A0072A8722AFD
:1041B00018A8304E7E001218666CA8006618A83049
:1041C0004E0C6618006C304E24A8722A183066A86F
:1041D0001E54660C189CA824545412A842780C3C17
:1041E000A8AEA8A8A8A8A8A8A8FF000000000000E2
:1041F00000000000000000000000000022FC6B0C2A
:104200006C3F6D0CA2EADAB6DCD66E0022D46603EF
:1042100068026060F015F0073000121AC7177708BF
:1042200069FFA2F0D671A2EADAB6DCD66001E0A19D
:104230007BFE6004E0A17B02601F8B02DAB6600C9B
:10424000E0A17DFE600DE0A17D02601F8D02DCD645
:10425000A2F0D67186848794603F8602611F871220
:1042600046001278463F1282471F69FF47006901E6
:10427000D671122A68026301807080B5128A68FEC6
:10428000630A807080D53F0112A2610280153F0150
:1042900012BA80153F0112C880153F0112C260207A
:1042A000F01822D48E3422D4663E3301660368FEB1
:1042B00033016802121679FF49FE69FF12C87901BD
:1042C000490269016004F0187601464076FE126CDE
:1042D000A2F2FE33F265F12964146502D455741517
:1042E000F229D45500EE808080808080800000001C
:1042F0000000C0C0C000FF006B206C00A2F6DBC451
:104300007C043C2013026A006B006C1FA2FADAB135
:10431000DAC17A083A401312A2F66A006B20DBA1D8
:1043200000EE0000121854494354414320627920A2
:1043300044617669642057494E5445526B006C00C5
:1043400080B081C0A3E6F155A3C4FF65A3B4FF55B7
:10435000A3E6F1658B008C1000E06E016013610331
:10436000A39AD0117008302B123E601371083123CC
:10437000123E60136103A39BD01F700830331254A8
:104380006013710FD01A7008303312602366F00A80
:104390008100A3B4F01EF0654000128A227C126AEC
:1043A0006010F018F015F0073000128200EE600285
:1043B0008E0380E0F055A3D4801070FF8004F01EBF
:1043C000F165A3AA3E03A3AFD01522C83A00121C80
:1043D000A3B4610062006301F06530007101F31E57
:1043E0007201321012B43110126A121C6A00A3B4A6
:1043F0006001F01EF8656900890423448914234490
:104400008924234A690089342344894423448954F4
:10441000234A690089642344897423448984234A94
:10442000690089642344893423448904234A690048
:1044300089742344894423448914234A6900898464
:104440002344895423448924234A690089842344CA
:10445000894423448904234A6900896423448944A4
:1044600023448924234A00EE890E890E00EE491563
:104470001354493F135A00EE23667B01135E2366F3
:104480007C0123666A01F00A00EE6305640AA3AFAB
:10449000D34563027406A3E6FB3323886332640AC0
:1044A000A3AAD345632F7406A3E6FC33F265F02973
:1044B0002394F1292394F229D345730500EE7F80DC
:1044C00080808080808080808080808080801C22AE
:1044D00022221C2214081422010000000000000007
:1044E00000000101010101010100000000000000C5
:1044F000000001010101010113051B052305130D36
:104500001B0D230D13151B15231500001219204D2B
:1045100045524C494E2042792044617669642057C7
:10452000494E54455222F9A31D6010610022CBA3CD
:1045300031600B611B22CB640422DF6500622822FC
:10454000C1C2038020A359F51EF0556017610863AE
:104550000183223300700A630283223300710AA3AD
:1045600017D016621422C1D016620522C1750154FB
:10457000501235650060176108A317F30A3304125F
:10458000796300129733051283700A63011297331F
:1045900007128D710A6302129733081269700A714B
:1045A0000A6303D016621422C1D016A359F51EF077
:1045B000657501503012B55540126922DF74011241
:1045C0002D22F9A3456010610E22CB12BFF215F225
:1045D00007320012C300EE83006205D015F21E7090
:1045E0000885307520505012CF00EEA359834073D8
:1045F000FDF333F265F129602B631BD0357005F2B2
:1046000029D03500EEA30F60176107D018700AD0CB
:1046100018710AD01870F6D01800EEFF81818181E0
:104620008181FF7E7E7E7E7E7EDBAA8BCBCBEF08F8
:104630008F0DECA0A0B030BE5F5151D9D9838283D9
:1046400082FBE8088805E2BEA0B8203E808080801A
:10465000F8F785B795F576545654563A2A2A2A39EA
:10466000B6A5B6A535000000121A322E3030204310
:104670002E20456765626572672031382F382D27F7
:10468000393180038113A8C8F1556005A8CCF055D5
:1046900087738663277200E027946E4087E26E2757
:1046A00087E1681A690C6A386B006C026D1A275032
:1046B000A8EDDAB4DCD423D03E00127CA8CCF0659F
:1046C0008500C4FF845224F6C4FF8452261E600174
:1046D000E0A127D636F7124E8E60287A6E64287ACB
:1046E00027D6122AF007400013108080800681A090
:1046F000810680154000129A4001129A40FF129ADA
:1047000012C88090800681B081068015400012B2E8
:10471000400112B240FF12B212C8A8EDDAB46A38F2
:104720006B00DAB46EF387E26E0487E16E32287AAA
:104730008080800681C081068015400012E0400123
:1047400012E040FF12E012548090800681D0810672
:104750008015400012F8400112F840FF12F8125480
:10476000A8EDDCD46C026D1ADCD46ECF87E26E202B
:1047700087E16E19287A1254603F28A82750A8EDC7
:10478000DAB4DCD46E4087E3807080E2300012320D
:104790008E60287A288A00E06611670AA8CA27E690
:1047A00066116710A8C827E6640065086600670FF1
:1047B000AB19D469AB22D569600328A83E0013C6A3
:1047C000AB19D469AB22D569740275023430134831
:1047D000AB19D469AB22D569600328A83E0013C683
:1047E000AB19D469AB22D569760236161368AB19BA
:1047F000D469AB22D569600328A83E0013C6AB1963
:10480000D469AB22D56974FE75FE34001386AB19EA
:10481000D469AB22D569600328A83E0013C6AB1942
:10482000D469AB22D56976FE360013A61348AB22B5
:10483000D569AB2BD569121A83706E0383E284802D
:1048400085906E06EEA114326E03EEA1144A6E0836
:10485000EEA114626E07EEA1147A430375024300C1
:1048600075FE43027402430174FE8040815027BAF2
:1048700082006E0880E2300014926E07802082E28F
:104880004205149A420614B2420714EC27506EFCFB
:1048900087E28731884089501750804081507102EB
:1048A00027BA82006E0880E2300013F263037502BB
:1048B000140E8040815071FE27BA82006E0880E29B
:1048C000300013F2630075FE140E804081507002B8
:1048D00027BA82006E0880E2300013F2630274028D
:1048E000140E8040815070FE27BA82006E0880E26C
:1048F000300013F2630174FE140E2750D8948EF02A
:1049000000EE6EF080E28031F055A8F1D4547601CB
:104910006105F0074000F11814246EF080E2803148
:10492000F055A8F5D454760480A081B027BA6EF073
:1049300080E2300014D26E0C87E380C081D027BAA9
:104940006EF080E2300014E46E3087E360FFF01810
:10495000F01514244301643A430264001424827065
:1049600083706E0C82E280A081B027BAA8ED6EF051
:1049700080E230001524DAB4420C7B0242007BFE58
:1049800042087A0242047AFEDAB400EE6E80F10741
:10499000310015D4340015D48100830E3F00155624
:1049A000839083B54F00158C3300157487E38380A3
:1049B00083A54F0015BC330015A487E315D483806D
:1049C00083A54F0015BC330015A487E3839083B5FE
:1049D0004F00158C3300157487E315D46340813282
:1049E000410015D4DAB47B02DAB46EF387E2620CCC
:1049F000872100EE63108132410015D4DAB47BFECA
:104A0000DAB46EF387E26200872100EE6320813220
:104A1000410015D4DAB47A02DAB46EF387E26208A0
:104A2000872100EE63808132410015D4DAB47AFE2A
:104A3000DAB46EF387E26204872100EEC1F08012DF
:104A4000300015E46E0C87E382E3150EDAB4800EB5
:104A50004F0015F262047AFE1614800E4F0015FE08
:104A6000620C7B021614800E4F00160A62087A024E
:104A70001614800E4F0015DC62007BFEDAB46EF374
:104A800087E2872100EE827083706E3082E280C000
:104A900081D027BAA8ED6EF080E23000164CDCD44D
:104AA00042307D0242007DFE42207C0242107CFEAC
:104AB000DCD400EE6E80F1073100170434001704D7
:104AC0008100830E4F00167E839083D54F0016B66B
:104AD0003300169C87E3838083C54F0016EA3300BA
:104AE00016D087E31704838083C54F0016EA33008E
:104AF00016D087E3839083D54F0016B63300169CFB
:104B000087E317046340813241001704DCD47D023F
:104B1000DCD487E36ECF87E26230872100EE63103A
:104B2000813241001704DCD47DFEDCD487E36ECFF4
:104B300087E26200872100EE632081324100170482
:104B4000DCD47C02DCD487E36ECF87E2622087214D
:104B500000EE6380813241001704DCD47CFEDCD49B
:104B600087E36ECF87E26210872100EEC1F08012EA
:104B70003000171687E36E3087E382E31636DCD405
:104B8000800E4F00172462907CFE1746800E4F0067
:104B9000173062307D021746800E4F00173C62A02E
:104BA0007C021746800E4F00170C62007DFEDCD49D
:104BB0006E4F87E2872100EE80706E0380E2800EE8
:104BC000818081946E0281E241007001800E800E2E
:104BD000A8CDF01ED8948EF000EE6E00A919FE1E2E
:104BE000FE1EFE1EFE1EF365AB34FE1EFE1EFE1EE6
:104BF000FE1EF3557E013E80177400EE8223833340
:104C00006E0F8020813027BE80E2800EA8F9F01E52
:104C1000D23272023240179A82237302432000EE8E
:104C2000179A7002710280068106810E810E810E34
:104C3000810EAB34F11EF11EF01EF06500EEA8CC23
:104C4000F0658006F0556001E0A117E000EEF16527
:104C50006E01844382008310651083554F0082E506
:104C60004F00180C652782554F00180C80208130AA
:104C700084E417F0F429D675760684438200831005
:104C800065E883554F0082E54F001834650382556F
:104C90004F0018348020813084E41818F429D67528
:104CA0007606844382008310656483554F0082E555
:104CB0004F0018548020813084E41840F429D675C0
:104CC0007606844382008310650A83554F00186E70
:104CD000813084E41860F429D6757606F129D675FA
:104CE00000EEA8C8F16581E43F007001A8C8F15545
:104CF00000EEA8C8F3658E008E254F0000EE3E0042
:104D000018A28E108E354F0000EEA8CAF15500EEA5
:104D10008EE3620F63FF6110E2A118C48134310099
:104D200018B061108034300018B000EE6E0100EE53
:104D3000000000000500507020005070200060301E
:104D40006000603060003060300030603000207003
:104D50005000207050002070700000200000000003
:104D600000000000000000000000008000000000C3
:104D700000C000000080800000C0808080C00080F3
:104D8000000C0808080808080808080808080808A7
:104D90000D0C08080808080808080808080808088A
:104DA0000D0A6505050505E50505E505050505C5C6
:104DB0000A0A6505050505E50505E505050505C5B9
:104DC0000A0A050C08080F050C0D050808080D0552
:104DD0000E0F050C08080F050C0D050808080D0539
:104DE0000A0A050A650605950A0A350505C50A3544
:104DF0000505950A650505950A0A350506C50A05DE
:104E00000A0A050F0508080808080C080F05080815
:104E10000808080F0508080C080808080F050F0502
:104E20000A0A7505B505050505C50A6505B505E553
:104E30000505E505B505C50A6505050505B505D5ED
:104E40000A0A050C080808080D050F050C080F05CF
:104E5000080F0508080D050F050C080808080D05C2
:104E60000A0F050F650505C50A35E5950A6505B004
:104E70000505B505C50A35E5950A650505C50F059E
:104E80000F077405D5080F050E0F05080F050C0850
:104E90000808080D05080F05080F05080F7505D44B
:104EA000070A050A350505F50505B50505D5080800
:104EB0000D0C080F750505B50505F50505950A05E1
:104EC0000A0A050808080D050C0808080D3505C56F
:104ED0000A0A6505950C0808080D050C08080F0559
:104EE0000A0A750506C50A050808080808080F0516
:104EF000080F050808080808080F050A650605D503
:104F00000A0A050C0D050A3505050505E50505F533
:104F10000505F50505E505050505950A050C0D05CD
:104F20000A0A05080F0508080808080F050C0D05F2
:104F3000080F050C0D0508080808080F05080F05DF
:104F40000A0A350505B5050505050505950A0A355D
:104F50000505950A0A35050505050505B5050595F7
:104F60000A0808080808080808080808080F0808B8
:104F70000808080F080808080808080808080808AA
:104F80000F3C429999423C01100F78843232847868
:104F90000010E078FCFEFE84780010E01217424C0E
:104FA00049545A2042792044617669642057494E19
:104FB000544552A34160046109620E6704D01EF299
:104FC0001E700C30401221F00A00E022D9F00A00D5
:104FD000E08E70A31E6B1FCC1F8CC4DCB23F01128D
:104FE00049DCB21239CA077A017BFEDCB27AFF3A99
:104FF00000124D7EFF3E0012396B008C706D006E0A
:1050000000A31BDDE33F0012C13B0012816005E0FD
:105010009E12876B0188D0780289E07903A31ED89D
:105020009181F06005F015F0073000128B3B011202
:10503000ABA31E3101D8917901392012AB6B00313D
:10504000007CFF4C0012BBA31BDDE37D023D401240
:10505000B96D007E01126500E07702122DA31BDD01
:10506000E360146102620BA320D01BF21E700830B3
:105070002C12CD12D7600A610D6205A307D015F27C
:105080001E7008302A12E1807070FE8006A387F03F
:1050900033F265602DF129610DD0157005F229D02C
:1050A0001500EE83828382FBE8088805E2BEA0B883
:1050B000203E80808080F880F8FCC0C0F981DBCB86
:1050C000FB00FA8A9A99F8EF2AE82929006F682EDE
:1050D0004C8FBEA0B8B0BE00BE223E34B2D8D800BD
:1050E000C3C300D8D800C3C300D8D8C0C000C0C054
:1050F00000C0C000C0C000DBDBDBDB0018180018FC
:105100001800181800DBDBDBDB001818001818008B
:105110001818001818DBDB00030300181800C0C0C3
:1051200000DBDB0000E06C004C006E0FA20360208F
:10513000F05500E022BE2276228E225E2246121018
:10514000610062176304411000EEA2E8F11EF065F1
:1051500040001234F029D2357101720564038412C3
:1051600034001222621773061222640384E265037C
:1051700085D2945000EE440300EE640184E422A63C
:105180001246640384E2650385D2945000EE440025
:1051900000EE64FF84E422A6125E640C84E2650CD7
:1051A00085D2945000EE440000EE64FC84E422A614
:1051B0001276640C84E2650C85D2945000EE440CA7
:1051C00000EE640484E422A6128EA2E8F41EF065C8
:1051D000A2E8FE1EF0556000A2E8F41EF0558E40D5
:1051E00000EE3C0012D2221C22D8221CA2F8FD1E86
:1051F000F0658D0000EE7CFFCD0F00EE7D01600FAD
:105200008D02ED9E12D8EDA112E200EE0102030420
:1052100005060708090A0B0C0D0E0F000D00010210
:1052200004050608090A0C0E03070B0F123076FB63
:10523000602080654F006600138400FF00000001BD
:10524000000C0A0019020406080202032C000F00D9
:1052500002052E0800000205000000006E006DA08F
:105260006A0869066804670266196410630C6200C4
:105270006106A212FA5523D46040F015F007300001
:10528000125023D4230A2362A212F56522AE22C64D
:1052900022EC3F0123143F0122EC3F0122EC3F01AD
:1052A000227C4F0113661262A212F565460035009A
:1052B0001288138CE7A16209E8A16204E9A16206E1
:1052C000EAA16201420000EE22AE8120239A23ACC3
:1052D0006C0162006F00A212F555A3FF410160004E
:1052E000410460134106600D41096006F01ED3477A
:1052F00000EE6005E09E00EE450F00EE650F76FFC4
:10530000A212F55574037303239A239A239AA223B6
:10531000F555A419D34100EEA223F565450000EE32
:10532000A419D341239A6C0223BE4BBB130AD34169
:10533000A223F55500EE65006000A217F055130496
:10534000A21DF565350F1344A41AD345320013325C
:10535000C103A219F11EF0658100C20F7201239AE8
:10536000A41A6C0372FF6F00D345A21DF55500EE21
:10537000C407A41FF41EF0658300A427F41EF06583
:105380008400A41AD3456020F018650F133E650011
:10539000133E4C0112024C021382A223F565450014
:1053A0001202A419D3416F00D3413F0112027E0AB9
:1053B0006040F01800E0124A00E023D46060F0186A
:1053C00013946E001384410174FF410473FF41067E
:1053D00073014109740100EE44007401430073013C
:1053E000433873FF441874FF00EE6B00440013CE83
:1053F000430013CE433F13CE441F6BBB6F0000EE40
:1054000063086408A229FE33F26523EC6328A2290D
:10541000F633F26523F200EEF029D3457306F12945
:10542000D3457306F229D34500EE0110547C6C7C01
:105430007C447C7C6C7C541000FC786E78FC003FD3
:105440001E761E3F0080A870F870A80B1B2838300D
:10545000201000000000081B1B1B18046A126B01BF
:10546000611062006000A2B0D127F0293000DAB5E7
:1054700071087A0831301224611072086A127B08B0
:10548000A300F01EF05570013010120A6A126B0171
:105490006C0062FFC0067002225272FF32001238A6
:1054A0006E006E00F00A22527E017E01124884A036
:1054B00085B086C0300212644501126475F876FC2E
:1054C0003008127045191270750876043006127C87
:1054D0004412127C74F876FF30041288442A128831
:1054E00074087601A300F61EF06581006000A30039
:1054F000F61EF055A300FC1E8010F055F129D4557E
:10550000DAB58A408B508C6000EEEE5EFEFEFEFE49
:10551000FEFEFEFE121A434F4E4E454354342062A7
:10552000792044617669642057494E544552A2BBA4
:10553000F665A2B4F655690068016B006D0F6E1F29
:10554000A2A5600D61326200D02FD12F720F321EE2
:105550001234D021D1217201600AA29FD021D12121
:10556000A29FDDE1FC0ADDE14C05127E3C04126ADB
:105570007BFF7DFB3D0A127A6B066D2D127A3C068D
:1055800012987B017D053D32127A6B006D0FDDE1D3
:105590001250A2B4FB1EF06540FC12988A0070FB0A
:1055A000F0558983A29E3900A2A1DDA4A29FDDE16E
:1055B000125060F0F06090906080808080808080E9
:1055C00080808080808080801A1A1A1A1A1A1A1A0B
:1055D0001A1A1A1A1A1A00006E0565006B066A007C
:1055E000A30CDAB17A043A4012087B023B1212068D
:1055F0006C206D1FA310DCD122F660006100A312A5
:10560000D0117008A30ED0116040F015F0073000E3
:105610001234C60F671E680169FFA30ED671A3106E
:10562000DCD16004E0A17CFE6006E0A17C02603F6A
:105630008C02DCD1A30ED67186848794603F8602EB
:10564000611F8712471F12AC46006801463F68FF82
:1056500047006901D6713F0112AA471F12AA6005CF
:1056600080753F0012AA6001F018806061FC801212
:10567000A30CD07160FE890322F6750122F6456005
:1056800012DE124669FF806080C53F0112CA6102C6
:1056900080153F0112E080153F0112EE80153F0199
:1056A00012E86020F018A30E7EFF80E08004610005
:1056B000D0113E00123012DE78FF48FE68FF12EE75
:1056C0007801480268016004F01869FF1270A314A1
:1056D000F533F265F12963376400D3457305F22988
:1056E000D34500EEF0008000FC00AA00000000009E
:1056F00012128D8D20A93139393020525454208E08
:105700008E0024B624DA600FE0A11224600EE0A11E
:105710001228121624DA122C00E0122CC11F71106C
:10572000C20F7208C3038530861087208830480076
:105730007701480177FF48027601480376FFA54CC0
:10574000D121D67164F069F1A800F41E8030F055C3
:105750007401A800F41E6001F05525226A007A0049
:10576000F0073000129C3D0012946000F029DBC568
:105770003F01128CDBC52522F015129CFE156D0130
:105780006E00129C80E0F029DBC525226003E0A1B9
:1057900063006006E0A163016007E0A163026008A6
:1057A000E0A16303430072FF43017201430271FFF2
:1057B00043037101A54CD1213F0113243D011388FE
:1057C000603F8102601F820280B080173F01138812
:1057D00080B0700380153F01138880C080273F018F
:1057E000138880C0700480253F0113886004F0187E
:1057F000CE077E028AE4A54CD1216000F029DBC5EA
:1058000080E0F029DBC56030F015F0073000131A96
:10581000A54CD1219350133E7401A800F41E803092
:10582000F0557401A800F41E6000F0558530A80002
:10583000F41EF0657001F0554A001358600C70FFBB
:105840003000134E7AFF1270A54CD671480077FFD6
:1058500048017701480276FF48037601A800F91E47
:10586000F06570FFF055300012707901A800F91E44
:10587000F065880079011270600DF018600BE09EF1
:10588000138E6B016C006D007B013B0A13AA6B0049
:105890007C013C0A13AA6C007D01A54CD67148001E
:1058A00077FF48017701480276FF48037601A80098
:1058B000F91EF06570FFF05530001398994013DE23
:1058C0007901A800F91EF06588007901139800E0BD
:1058D00066116709682F6917A552D67ED87E77FFB3
:1058E000A54ED671D6917608D671D6917608D67126
:1058F000D6917608A550D671D691A59E66136711EC
:10590000249AA5AEF36593D01424803080D53F014E
:10591000143A144492C01432802080C53F01143AD6
:105920001444801080B53F001444A5AE83D082C0DB
:1059300081B0F355A5AEF365661377F98D308C20F1
:105940008B10A5A4249AC13FC21F600D80153F0093
:10595000147C603080173F00147C600380253F007A
:10596000147C601880273F00147C1482C30FF32935
:10597000D125600FE0A11490600EE0A1149614569A
:1059800000E024B6122C00E0122CD675A5AA7602EF
:10599000D674FD29760AD675FC297605D675FB29BD
:1059A0007605D67500EEA54E61006200661FD12116
:1059B000D1617108314014BEA5526201653FD12FFB
:1059C000D52F720FD12FD52F00EE610C6207A56283
:1059D000D12AA56C7106D12AA5767106D12AA56CAB
:1059E0007106D12AA5807106D12AA56C7106D12A2B
:1059F000610E6218A58AD123A58E710872FFD12489
:105A0000710972FEA592D12671067201A598D12561
:105A100000EE6DC5CB3F8EB08ED44F0115247B01B7
:105A20006DE6CC1F8EC08ED44F0115327C016D0007
:105A3000CE3F7E40FE15CE3F7E4000EE8000FF0050
:105A4000FE00808080808080808080808080808058
:105A500080801F1010101F010101011F1111111171
:105A60001F04040404041F01020204040808101F98
:105A70001F11101010131111111F05050200715193
:105A800051750C121E141209143E15152A00774484
:105A90002414770057527252570000010001000091
:105AA0000000000060006380611F620F2232A200CC
:105AB000F31EF00AF0554000121C73013300120867
:105AC0006380A200F31EF0654000121C73014300C6
:105AD000121C2232121E400272FF400471FF400667
