:020000040800F2
:1000000000200020B1140008F7140008F9140008BB
:10001000FB140008FD140008FF1400080000000095
:1000200000000000000000000000000001150008B2
:10003000031500080000000005150008071500085A
:10004000F5140008F5140008F5140008F51400086C
:10005000F5140008F5140008F5140008F51400085C
:100060000D150008451500087D150008F514000859
:10007000F5140008F5140008F5140008F51400083C
:10008000F5140008F5140008F5140008000000003D
:10009000000000000000000000000000B51500088E
:1000A000F5140008F5140008F5140008F51400080C
:1000B000F5140008F5140008F5140008F5140008FC
:1000C000F5140008F5140008F5140008F5140008EC
:1000D000F5140008F5140008F5140008F5140008DC
:1000E0006D160008F5140008F51400080000000063
:1000F0000000000000000000000000000000000000
:1001000000000000000000000000000000000000EF
:100110000000000000000000F5140008F5140008BD
:1001200000000000000000000000000000000000CF
:1001300000000000000000000000000000000000BF
:1001400000000000000000000000000000000000AF
:10015000000000000000000000000000000000009F
:10016000000000000000000000000000000000008F
:10017000000000000000000000000000000000007F
:10018000000000000000000000000000000000006F
:10019000000000000000000000000000000000005F
:1001A000000000000000000000000000000000004F
:1001B000000000000000000000000000000000003F
:1001C0000000000000000000000000005FF808F1DF
:1001D000032A2DE9F00109D82AB10023CC5CC454CC
:1001E00001339342FAD1BDE8F00170470B46821803
:1001F000014603E02478013301F8014B11F0030FAD
:100200001C46F7D113F003055DD06E42C5F1040C16
:10021000ED009B594FEACC0C08E00434A7593B464B
:1002200007FA0CF748EA070741F8047B571A23FA44
:1002300005F8032FF1DC03E014F8013B01F8013B62
:100240008A42F9D8CFE753F8404C41F8404C53F874
:100250003C4C41F83C4C53F8384C41F8384C53F87E
:10026000344C41F8344C53F8304C41F8304C53F88E
:100270002C4C41F82C4C53F8284C41F8284C53F89E
:10028000244C41F8244C53F8204C41F8204C53F8AE
:100290001C4C41F81C4C53F8184C41F8184C53F8BE
:1002A000144C41F8144C53F8104C41F8104C53F8CE
:1002B0000C4C41F80C4C53F8084C41F8084C53F8DE
:1002C000044C41F8044C561A1D460C46403340314C
:1002D0003F2EB8DC2B460FE053F8101C44F8101CDE
:1002E00053F80C1C44F80C1C53F8081C44F8081C68
:1002F00053F8041C44F8041C161B21461D461034F8
:1003000010330F2EE8DC2B4602E0246841F8044B42
:10031000551A1C46032D03F10403F6DC90E700BFD9
:10032000032AC9B270B408D82AB10346121803F8D8
:10033000011B9342FBD170BC70478218044601E058
:1003400004F8011B14F0030FFAD14FF0013303FB43
:1003500001F31FE044F8403C44F83C3C44F8383C8E
:1003600044F8343C44F8303C44F82C3C44F8283CF5
:1003700044F8243C44F8203C44F81C3C44F8183C25
:1003800044F8143C44F8103C44F80C3C44F8083C55
:1003900044F8043C161B254640343F2EDADC2C463C
:1003A00007E044F8103C44F80C3C44F8083C44F89E
:1003B000043C161B254610340F2EF2DC01E045F8F4
:1003C000043B541B032CFADC01E005F8011B9542A9
:1003D000FBD3B0E720F0030110F00300C0F10000F0
:1003E00051F8043B00F1040C4FEACC0C6FF0000212
:1003F0001CBF22FA0CF213434FF0010C4CEA0C2CF8
:100400004CEA0C4CA3EB0C0222EA030212EACC12D7
:1004100004BF51F8043B0430F4D013F0FF0F1FBFAA
:10042000013013F47F4F013013F47F0F18BF0130F8
:10043000704700BF4209012300F01F0013FA00F0CB
:10044000014B43F82200704700E100E0024B1860C6
:100450001A68002AFCD1704738030020F8B54FF421
:100460008071314800F0B3FF4FF4805107462E48A9
:1004700000F0ADFF4FF4006106462C4800F0A7FFE6
:100480004FF400710446294800F0A1FF04210546FD
:10049000274800F09CFF274B1A7832B12FB1264A2B
:1004A0000121117100221A7003E01A780AB9224959
:1004B0000A719A783AB136B11F4A012151731D4A27
:1004C0000139917003E09A780AB91B494A735A7846
:1004D0003AB135B1184A01219171164A013951706A
:1004E00003E05A780AB914498A71DA783AB134B11A
:1004F000114A012151710F4A0139D17004E0DA78B3
:100500009A5C0AB90C494A71DA793AB130B10B4BAD
:1005100001221A70074B013ADA71F8BDDA799B5C57
:100520000BB9064A1370F8BD0008014000100140E5
:100530000014014044030020B213002034030020C3
:1005400037B52F4D2F4C2B7853B12F484FF4807176
:1005500000F03DFF20B12378013B237000232B7076
:10056000AB785BB128484FF4805100F030FF28B1E0
:100570002378002201332370214B9A70EB794BB121
:100580002248042100F023FF20B1214A00231370E8
:100590001B4AD3712B7AA3B11E48082100F017FF24
:1005A00078B11D48012100F012FF20B11A48012145
:1005B00000F015FF03E01848012100F00EFF0023B2
:1005C0002B726B7A7BB11348102100F000FF50B101
:1005D000124B0020009308226023014600F01EFB0E
:1005E000074B00225A722378FF2B02D1054B1622AB
:1005F0001A702378162B02D9024B00221A703EBDC6
:10060000440300203C030020000801400014014086
:1006100064030020000C014000100140903E0008DF
:10062000054B00221A710C3218605A7118460B3AA9
:100630009A7100F02BBE00BF6C0300202DE9F04141
:1006400001214048404C00F0CDFE01213F4800F020
:10065000C9FE48230226E3702146F8233C480425BE
:100660002380A67000F064FE21463A48258000F001
:100670005FFE4FF4C8532146374823804FF400777C
:1006800000F056FE21463548278000F051FE01203B
:10069000032100F0DBFE0120294600F0D7FE0120F7
:1006A000052100F0D3FE0120062100F0CFFE01203D
:1006B000072100F0CBFE0320314600F0C7FE0020EA
:1006C000082100F0C3FE00200B2100F0BFFE002037
:1006D0000C2100F0BBFE0921304600F0B7FE284691
:1006E000FFF79EFF0820FFF79BFF1020FFF798FF02
:1006F0002020FFF795FF4020FFF792FF8020FFF7B3
:100700008FFF4FF48070FFF78BFF3846FFF788FFAD
:100710004FF40060FFF784FF4FF48050FFF780FF35
:100720000820FFF787FE0920FFF784FE0A20FFF765
:1007300081FE1720FFF77EFE2820BDE8F041FFF77D
:1007400079BE00BF000130004E03002000023000DF
:10075000000C01400014014000080140001001405D
:100760007E4B2DE9F74F1A684FF47A73B2FBF3F220
:1007700022F07F427A4B013A5A607A4AF02182F89D
:1007800023104FF000080722C3F808803D201A60AC
:10079000EF39754C00F074FE4FF40030012100F089
:1007A0007BFE1027FFF74AFF012514222280022634
:1007B0006E482146E770A57000F0BAFD6C482146EE
:1007C000E7702580A67000F0B3FD68482146E77009
:1007D0002680A67000F0ACFD6548294600F0FDFDBE
:1007E000644B4FF0000903F8089013F80820624B9F
:1007F00003F8082008F10108B8F10A0FF0D15F4AA8
:100800005F4B604F604E614D614CDFF89C814FF053
:10081000010A1A6087F800A086F8009085F800A009
:1008200084F8009088F800A000F052F9504600F0DB
:10083000F3F8584B4946082200934846602300F0DD
:10084000EDF9554B4FF47A70984700F01DF90720E9
:10085000524900F0D0F9BB469BF80030002B35D050
:100860002A7823789A4228D000F00EF94C4B0420C5
:10087000009351210346012200F0D0F9444B494E28
:100880001B7833B1013B0320142156F8232000F0DC
:100890009FF923780420142156F8232000F098F9BA
:1008A0002278152A07D83F4B01320520142153F82E
:1008B000222000F08DF923782B703B4A137813B176
:1008C000394B00221A70FFF73BFEC5E700F054FCDD
:1008D0002B78364A52F82300354A32F8231000F0BC
:1008E000CDFCDFF8D4A000F093FC2B4B05209847FB
:1008F0009AF80030B3B922E019F8012F12B938463E
:10090000314602E0384631460122013FFFB200F095
:10091000DFF9102FF0D10136F6B2322E08F140087F
:1009200003D107E04FF0FF381226224B502708EB87
:100930000309E1E700238AF8003000F0BDF9FFF772
:100940008DFD114A1378002BCBD00F4901220023D3
:100950008BF800200B702A7023707DE718000020B0
:1009600010E000E000ED00E04E0300200008014030
:100970000010014044030020240300200000002058
:100980004003002064030020340300203D030020C6
:100990003C030020412200084D04000834260008D2
:1009A000A4170008D825000835030020B447000824
:1009B0005C1B0008C3130020B1130020054B1A680C
:1009C00001321A60044B1A6812B11A68013A1A60AF
:1009D000704700BF30030020380300200D4B042275
:1009E00009B11A6100E05A6110221A615A61083A8D
:1009F000084B10F0800F4FF0040114BF19615961CA
:100A00001021013A1961596102D04000C0B2EFE7EC
:100A1000704700BF0008014008B50A4B02225A6126
:100A2000014610B1C820002100E0C020FFF7D6FF2A
:100A3000054B1B8813F0400FFAD0024B02221A61BB
:100A400008BD00BF000801400044004008B50C4B41
:100A500002225A61B0200021FFF7C0FF10200021C0
:100A6000FFF7BCFF00200146FFF7B8FF054B1B88CE
:100A700013F0400FFAD0024B02221A6108BD00BFEA
:100A8000000801400044004010B5FFF7DFFF0D4BA8
:100A900002225A614FF4587400200121FFF79EFF93
:100AA000013CF9D1084B1B8813F0400FFAD0054BDD
:100AB000022206481A6100214FF44072BDE810403E
:100AC000FFF72EBC00080140004400401C0000203D
:100AD000144B022210B5E2205A610021FFF77EFF7D
:100AE000114CFFE7013CFDD1A4202146FFF776FF22
:100AF0002F202146FFF772FFAF202146FFF76EFF40
:100B00000A4B1B8813F0400FFAD0064B02221A61E1
:100B1000074B1A686FF300021A60BDE81040FFF738
:100B2000B3BF00BF00080140B0AD01000044004069
:100B300074030020F8B5224B02EB8202D718214B38
:100B4000022200F00F000C465A6140F0B000002174
:100B5000FFF744FF200940F010000021FFF73EFF9F
:100B600004F00F000021FFF739FF0025164E785DD5
:100B7000337813F0010F01D0C043C0B2013401211A
:100B8000E4B2FFF72BFF5F2C05D9104B1B8813F045
:100B9000400FFAD010E0013D15F1050FE6D1307895
:100BA00010F0010018BFFF200121FFF717FF074BCE
:100BB0001B8813F0400FFAD0024B02221A61F8BDD5
:100BC0000F4A000800080140740300200044004060
:100BD000C1F15B0170B506461546CCB206E0214670
:100BE000063C3046E4B2FFF7A5FF1CB115F8012B17
:100BF000002AF4D170BD70B5054608460C46FFF7D3
:100C0000E9FB06214143C1F1600149082846C9B208
:100C10002246BDE87040FFF7DBBF00002DE9F74F2B
:100C20009946224B15464FEA111B022201900C9F58
:100C30000C465A614BF0100B00262AE0019B002164
:100C4000F01800F00F0040F0B000FFF7C7FE584664
:100C50000021FFF7C3FE04F00F000021FFF7BEFEE6
:100C6000BA464FF000080FE0114B1AF8010B1B7841
:100C700013F0010F01D0C043C0B20121FFF7AEFE57
:100C800008F101085FFA88F8C845EDD101364F44F4
:100C9000F6B2AE42D2D1074B1B8813F0400FFAD008
:100CA000024B02221A61BDE8FE8F00BF000801401E
:100CB000740300200044004007B5044B002000935B
:100CC000014608226023FFF7A9FF0EBD1C0000208B
:100CD0005F2810B523D8432923D8CB08602404FB10
:100CE0000300683C04FB03110F4CC9B2235C2AB912
:100CF000013212FA01F123EA01030DE0012A03D1C6
:100D00008A4042EA030306E0022A05D1013A12FAB8
:100D100001F181EA0303DBB22354012010BDFF205F
:100D200010BDFF2010BD00BF1C000020C0B2E02895
:100D300002D0EE2815D10BE000230A4A0021995475
:100D40000133B3F5006FF8D1074B01221A707047D9
:100D5000064BDA8E013A92B2DA86083233F8122064
:100D60009A867047C3130020B11300207803002037
:100D7000014B9886704700BF78030020064B10B5E2
:100D8000DA8E9C8E000502F10801000D013223F875
:100D90001140DA86988610BD78030020054B020AC0
:100DA0009A5C00F0FF00824202D19A8E02329A864B
:100DB000704700BF78030020054B020A9A5C00F0E0
:100DC000FF00824202D09A8E02329A86704700BF9C
:100DD00078030020020A064B000900F00F00995C1E
:100DE0001A5C914202D19A8E02329A86704700BFF5
:100DF00078030020014B020AD0547047780300208A
:100E0000024A030AD15C0818D054704778030020C6
:100E1000020A064B000900F00F00995C1A5C91422F
:100E200002D09A8E02329A86704700BF7803002063
:100E3000014B5886704700BF78030020024B1A7898
:100E400082189A86704700BF780300202DE9F04190
:100E50001F4A030A12F803C0030903F00F03D15C11
:100E60001C4B01F01F018C0100F00F00E3180C185F
:100E7000202CC4BFC1F12000C0B20CF03F0C568E34
:100E800001251AE03105144C090D0136645CB6B237
:100E900061460DE014F0800F05D05F5CFF43FFB2A8
:100EA0005F5407EA050564000131E4B201F03F0137
:100EB000002CEFD10138C0B240330028E2D185F0D8
:100EC0000105064BD57301221A70BDE8F08100BF01
:100ED00078030020C3130020B1030020B1130020C9
:100EE00000F0FF039E2B02D0A12B13D109E00A4B87
:100EF000000A1A5C09498A5C62B19A8E02329A86AB
:100F00007047054B000A1A5C04498A5C12B99A8E34
:100F100002329A86704700BF78030020B213002087
:100F2000030AC0B21E28F0B53AD00CD80A281BD04C
:100F300003D8072840F08E8011E0152826D0182805
:100F400040F0888027E0332837D003D8292840F0A4
:100F500081802AE0552850D065287BD164E03E4A44
:100F600092F83010D154F0BD002211463B4C145D74
:100F700014B13949CA5401210132102AF6D100298D
:100F800068D1354B9A8E023A9A86F0BD324AD35CCC
:100F900082F83030F0BD304AD35C82F83130F0BD99
:100FA0002D4AD15C538ECB1805E02B4A0521D35C2A
:100FB00003F00F034B435386F0BD274A0020D35C58
:100FC00003E00130643BC0B2DBB2632BF9D8528E30
:100FD000234C1105090D6054002003E001300A3B49
:100FE000C0B2DBB2092BF9D8511C02320905120537
:100FF000090D120D6054A354F0BD174903F00F05FD
:10100000488E00220C461118A75C01320905144EC7
:10101000D2B2090DAA427754F5D903F00F03013378
:101020000D4AC0185086F0BD0B4903F00F05488EDD
:1010300000220C4611180905094E090D715CA154D6
:101040000132D2B2AA42F5D903F00F030133024AAA
:10105000C0185086F0BD00BF78030020B2130020F6
:10106000B103002001707047037841EA0303037065
:101070007047037801EA030303707047037881EA3D
:1010800003030370704700000378034ACB18037012
:101090001B0AD373704700BF780300200378044A0B
:1010A0005B1A9BB203701B0A0133D373704700BFF6
:1010B000780300200278044B02F00102DA7303780F
:1010C0005B080370704700BF780300200378044A70
:1010D000CB1A9BB203701B0A0133D373704700BF56
:1010E00078030020704700000278034BD209DA73BE
:1010F00003785B00037070477803002010B5074A3F
:101100000109074B00F00F0401F00F0153F82430E0
:1011100002EB1020515C984710BD00BF78030020FF
:101120004C4F00080A4B0B4A1868116810600A48B7
:1011300081EAC12102681A60084A1368036083EAE1
:10114000D34383EA010080EA11201060704700BF9A
:101150000C000020100000200800002014000020D7
:1011600010B50446FFF7DEFF024A230A2040D054A0
:1011700010BD00BF780300201D4B00224FF400710A
:101180009986DA865A8683F8302083F83120002148
:10119000184800220A540131B1F5006FF8D100213E
:1011A00099540132102AFAD1134B03F12002002185
:1011B00023F8021F9342FAD10023104900225A5407
:1011C0000133B3F5805FF8D10D4800231354013289
:1011D000102AF9D10B481A05C05C0133120D502BAF
:1011E0008854F7D1084A4F3B1370084A1370704770
:1011F00078030020C313002086030020B1030020E1
:10120000B21300208C4F0008B0030020B11300205F
:1012100070B51E24154D1649AB8E013C5A1C1205A3
:10122000120D8E5C1A05120D885C02330002301814
:1012300080B2AB860F4B020B000553F82230000D35
:10124000E4B29847002CE5D195F8303013B1013B5A
:1012500085F8303095F8313033B1012B04BF064AA0
:101260001370013B85F8313070BD00BF780300205A
:10127000B10300200C4F0008C213002003460248AF
:101280000A461946FEF7A4BFB1050020837910B5C0
:101290000168002B2BD01B4BCA431C6802EA0404D4
:1012A0001C605C6822405A600279D218146844EAD3
:1012B0000101116002689C68D14301EA04049C604A
:1012C000DC682140D9604179102907D19968114320
:1012D0009960D96841EA0202DA6010BD01F18043E9
:1012E00003F58233196841EA02021A6010BD0379DE
:1012F00003F1804303F582331A6822EA0101196081
:1013000010BD00BF00040140054B1A685B69034033
:1013100004D010420CBF00200120704718467047CF
:1013200000040140014B5861704700BF00040140B8
:10133000CB78F0B513F0100F03F00F020E881CBF2E
:101340008B781A4316F0FF0F1DD004680023012785
:101350009F4007EA0605BD4211D19F004FF00F0CD8
:101360000CFA07FC12FA07F724EA0C043C43CF7886
:10137000282F01D1456102E0482F08BF05610133E4
:10138000082BE4D104600E88FF2E1FD94468002387
:1013900003F108050127AF4007EA0605BD4211D158
:1013A0009F004FF00F0C0CFA07FC12FA07F724EA23
:1013B0000C043C43CF78282F01D1456102E0482F2F
:1013C00008BF05610133082BE2D14460F0BD83689A
:1013D00019420CBF00200120704701617047416134
:1013E000704700000028184B30B500F44014B4BF1B
:1013F000DB695B68B4F5401F82B207D1124C23F061
:101400007063656825F07065656011E010F4801FF9
:1014100006D000F47024240C032515FA04F403E02C
:10142000440D240112FA04F423EA040343F0706328
:1014300019B1410D09018A401343034A0028B4BF82
:10144000D361536030BD00BF0000014001F00302D2
:1014500030B592000F24944010FA02F2074B89082D
:10146000023153F8215025EA040443F8214053F88F
:10147000214042EA040443F8214030BD000001400D
:10148000044B11B19A69104302E09A6922EA000004
:101490009861704700100240044B11B1DA691043A3
:1014A00002E0DA6922EA0000D861704700100240C9
:1014B000002103E00A4B5B584350043109480A4BB2
:1014C00042189A42F6D3094A02E0002342F8043B4C
:1014D000074B9A42F9D300F0F7F8FFF741F970474C
:1014E000A2560008000000201C0000201C00002064
:1014F000C41B0020FEE77047FEE7FEE7FEE7FEE7BD
:10150000704770477047FFF759BA000008B50420CC
:10151000FFF7FAFE48B1074A074B04201A60074B51
:10152000DA790132DA71FFF7FDFE054B01221A70FC
:1015300008BD00BFDC4F000840030020440300202A
:101540003503002008B50820FFF7DEFE48B1074A42
:10155000074B08201A60074B1A7A01321A72FFF7FC
:10156000E1FE054B01221A7008BD00BFE74F0008DD
:1015700040030020440300203503002008B510205C
:10158000FFF7C2FE48B1074A074B10201A60074B0D
:101590005A7A01325A72FFF7C5FE054B01221A70C2
:1015A00008BD00BFF24F00084003002044030020A4
:1015B0003503002008B52020FFF7A6FE40B1234ADE
:1015C000234B20201A60234B9A7901329A7136E01E
:1015D0004020FFF799FE40B11F4A1D4B40201A6082
:1015E0001C4B5A7901325A7129E08020FFF78CFE9A
:1015F00040B11A4A164B80201A60164B1A790132F4
:101600001A711CE04FF48070FFF77EFE48B1144A57
:101610000F4B4FF480701A600E4B1A7801321A701B
:101620000DE04FF40070FFF76FFE50B10D4A084B0C
:101630004FF400701A60074B5A7801325A70FFF766
:1016400071FE094B01221A7008BD00BFFD4F000852
:1016500040030020440300200850000813500008F5
:101660001E500008295000083503002008B54FF42B
:101670008050FFF749FE48B10E4A0F4B4FF480509F
:101680001A600E4B9A7801329A700DE04FF40060A8
:10169000FFF73AFE50B10A4A074B4FF400601A6058
:1016A000064BDA780132DA70FFF73CFE054B012277
:1016B0001A7008BD33500008400300204403002086
:1016C0003D50000835030020334B82B01A6842F0C9
:1016D00001021A605968314A01EA02025A601A6826
:1016E00022F0847222F480321A601A6822F4802276
:1016F0001A605A6822F4FE025A604FF41F029A6080
:101700000022DA62019200921A6842F480321A6072
:10171000214B1A6802F400320092019A01320192C0
:10172000009A1AB9019AB2F5A06FF1D11B6813F4AF
:10173000003318BF01230093009B012B25D1164BCA
:101740005A685A605A685A605A685A605A6822F44D
:101750007C125A605A6842F498125A601A6842F031
:1017600080721A600C4B1A6812F0007FFAD05A6827
:1017700022F003025A605A6842F002025A60064B95
:101780005B6803F00C03082BF9D1054B4FF00062A6
:101790009A6002B0704700BF001002400000FFF8DE
:1017A00000ED00E0081C3E7F12128D8D20A931391A
:1017B000393020525454208E8E0024B624DA600F23
:1017C000E0A11224600EE0A11228121624DA122CD5
:1017D00000E0122CC11F7110C20F7208C3038530C4
:1017E00086108720883048007701480177FF48023B
:1017F0007601480376FFA54CD121D67164F069F1DA
:10180000A800F41E8030F0557401A800F41E600199
:10181000F05525226A007A00F0073000129C3D0046
:1018200012946000F029DBC53F01128CDBC5252234
:10183000F015129CFE156D016E00129C80E0F029DF
:10184000DBC525226003E0A163006006E0A163011F
:101850006007E0A163026008E0A16303430072FF38
:1018600043017201430271FF43037101A54CD12171
:101870003F0113243D011388603F8102601F8202F3
:1018800080B080173F01138880B0700380153F013E
:10189000138880C080273F01138880C07004802592
:1018A0003F0113886004F018CE077E028AE4A54C3D
:1018B000D1216000F029DBC580E0F029DBC5603074
:1018C000F015F0073000131AA54CD1219350133EA8
:1018D0007401A800F41E8030F0557401A800F41EB5
:1018E0006000F0558530A800F41EF0657001F055D9
:1018F0004A001358600C70FF3000134E7AFF1270CC
:10190000A54CD671480077FF48017701480276FF61
:1019100048037601A800F91EF06570FFF05530000D
:1019200012707901A800F91EF06588007901127023
:10193000600DF018600BE09E138E6B016C006D0063
:101940007B013B0A13AA6B007C013C0A13AA6C00C2
:101950007D01A54CD671480077FF48017701480208
:1019600076FF48037601A800F91EF06570FFF05578
:1019700030001398994013DE7901A800F91EF06534
:1019800088007901139800E066116709682F6917CC
:10199000A552D67ED87E77FFA54ED671D691760811
:1019A000D671D6917608D671D6917608A550D671A3
:1019B000D691A59E66136711249AA5AEF36593D0C0
:1019C0001424803080D53F01143A144492C014325C
:1019D000802080C53F01143A1444801080B53F0038
:1019E0001444A5AE83D082C081B0F355A5AEF36593
:1019F000661377F98D308C208B10A5A4249AC13FF3
:101A0000C21F600D80153F00147C603080173F00BE
:101A1000147C600380253F00147C601880273F0001
:101A2000147C1482C30FF329D125600FE0A1149018
:101A3000600EE0A11496145600E024B6122C00E0CB
:101A4000122CD675A5AA7602D674FD29760AD6750B
:101A5000FC297605D675FB297605D67500EEA54ED0
:101A600061006200661FD121D1617108314014BE4E
:101A7000A5526201653FD12FD52F720FD12FD52FDF
:101A800000EE610C6207A562D12AA56C7106D12A0D
:101A9000A5767106D12AA56C7106D12AA58071069A
:101AA000D12AA56C7106D12A610E6218A58AD123AC
:101AB000A58E710872FFD124710972FEA592D126FC
:101AC00071067201A598D12500EE6DC5CB3F8EB091
:101AD0008ED44F0115247B016DE6CC1F8EC08ED4B1
:101AE0004F0115327C016D00CE3F7E40FE15CE3F8A
:101AF0007E4000EE8000FF00FE00808080808080BD
:101B0000808080808080808080801F1010101F0166
:101B10000101011F111111111F04040404041F010C
:101B2000020204040808101F1F11101010131111D5
:101B3000111F05050200715151750C121E14120976
:101B4000143E15152A007744241477005752725218
:101B5000570000010001000000000000EE0100003D
:101B6000E600000096000000E500000052030000BF
:101B70002600000018010000CE000000FB0100005C
:101B80001505000026010000E601000059010000D3
:101B90003409000087010000080100003002000045
:101BA000B8000000C200000018010000B2030000ED
:101BB00078000000D300000060006100A222C20192
:101BC0003201A21ED014700430401204600071046F
:101BD00031201204121C804020102040801012304E
:101BE00076FB602080654F006600138400FF0000D4
:101BF0000001000C0A0019020406080202032C006E
:101C00000F0002052E0800000205000000006E0013
:101C10006DA06A0869066804670266196410630C9F
:101C200062006106A212FA5523D46040F015F00755
:101C30003000125023D4230A2362A212F56522AE8B
:101C400022C622EC3F0123143F0122EC3F0122EC8B
:101C50003F01227C4F0113661262A212F565460015
:101C600035001288138CE7A16209E8A16204E9A19A
:101C70006206EAA16201420000EE22AE8120239AB0
:101C800023AC6C0162006F00A212F555A3FF410165
:101C90006000410460134106600D41096006F01EBA
:101CA000D34700EE6005E09E00EE450F00EE650FA5
:101CB00076FFA212F55574037303239A239A239A8D
:101CC000A223F555A419D34100EEA223F5654500E2
:101CD00000EEA419D341239A6C0223BE4BBB130A16
:101CE000D341A223F55500EE65006000A217F05520
:101CF0001304A21DF565350F1344A41AD345320011
:101D00001332C103A219F11EF0658100C20F7201E6
:101D1000239AA41A6C0372FF6F00D345A21DF555D8
:101D200000EEC407A41FF41EF0658300A427F41E70
:101D3000F0658400A41AD3456020F018650F133EA7
:101D40006500133E4C0112024C021382A223F5657A
:101D500045001202A419D3416F00D3413F01120282
:101D60007E0A6040F01800E0124A00E023D4606070
:101D7000F01813946E001384410174FF410473FF43
:101D8000410673014109740100EE440074014300EF
:101D90007301433873FF441874FF00EE6B00440076
:101DA00013CE430013CE433F13CE441F6BBB6F00D3
:101DB00000EE63086408A229FE33F26523EC632871
:101DC000A229F633F26523F200EEF029D34573061B
:101DD000F129D3457306F229D34500EE0110547C56
:101DE0006C7C7C447C7C6C7C541000FC786E78FCB1
:101DF000003F1E761E3F0080A870F870A80B1B28BD
:101E00003830201000000000081B1B1B18046A1249
:101E10006B01611062006000A2B0D127F029300090
:101E2000DAB571087A0831301224611072086A122A
:101E30007B08A300F01EF05570013010120A6A12E0
:101E40006B016C0062FFC0067002225272FF32000A
:101E500012386E006E00F00A22527E017E01124896
:101E600084A085B086C0300212644501126475F802
:101E700076FC300812704519127075087604300629
:101E8000127C4412127C74F876FF30041288442AC3
:101E9000128874087601A300F61EF06581006000C8
:101EA000A300F61EF055A300FC1E8010F055F1298A
:101EB000D455DAB58A408B508C6000EEEE5EFEFEA3
:101EC000FEFEFEFEFEFE1217424C49545A20427995
:101ED0002044617669642057494E544552A34160BD
:101EE000046109620E6704D01EF21E700C304012AD
:101EF00021F00A00E022D9F00A00E08E70A31E6BE8
:101F00001FCC1F8CC4DCB23F011249DCB21239CAAB
:101F1000077A017BFEDCB27AFF3A00124D7EFF3E6B
:101F20000012396B008C706D006E00A31BDDE33F67
:101F30000012C13B0012816005E09E12876B018890
:101F4000D0780289E07903A31ED89181F06005F072
:101F500015F0073000128B3B0112ABA31E3101D8E4
:101F6000917901392012AB6B0031007CFF4C0012DB
:101F7000BBA31BDDE37D023D4012B96D007E011263
:101F80006500E07702122DA31BDDE360146102629D
:101F90000BA320D01BF21E7008302C12CD12D7607C
:101FA0000A610D6205A307D015F21E7008302A12CF
:101FB000E1807070FE8006A387F033F265602DF13A
:101FC00029610DD0157005F229D01500EE838283AA
:101FD00082FBE8088805E2BEA0B8203E80808080B1
:101FE000F880F8FCC0C0F981DBCBFB00FA8A9A9933
:101FF000F8EF2AE82929006F682E4C8FBEA0B8B0F0
:10200000BE00BE223E34B2D8D800C3C300D8D80028
:10201000C3C300D8D8C0C000C0C000C0C000C0C08A
:1020200000DBDBDBDB00181800181800181800DBD9
:10203000DBDBDB001818001818001818001818DB74
:10204000DB00030300181800C0C000DBDB22FC6BC0
:102050000C6C3F6D0CA2EADAB6DCD66E0022D466B8
:102060000368026060F015F0073000121AC7177796
:102070000869FFA2F0D671A2EADAB6DCD66001E008
:10208000A17BFE6004E0A17B02601F8B02DAB660D8
:102090000CE0A17DFE600DE0A17D02601F8D02DCE1
:1020A000D6A2F0D67186848794603F8602611F872E
:1020B0001246001278463F1282471F69FF470069A7
:1020C00001D671122A68026301807080B5128A6895
:1020D000FE630A807080D53F0112A2610280153F25
:1020E0000112BA80153F0112C880153F0112C2606B
:1020F00020F01822D48E3422D4663E330166036861
:10210000FE33016802121679FF49FE69FF12C87991
:1021100001490269016004F0187601464076FE121A
:102120006CA2F2FE33F265F12964146502D4557491
:1021300015F229D45500EE808080808080800000D8
:10214000000000C0C0C000FF006B206C00A2F6DBE6
:10215000C47C043C2013026A006B006C1FA2FADAF4
:10216000B1DAC17A083A401312A2F66A006B20DB9A
:10217000A100EEA2CC6A0761006B086000D011706C
:10218000087BFF3B00120A71047AFF3A00120666D0
:10219000006710A2CD6020611ED011631D623F82D6
:1021A0000277FF470012AAFF0AA2CBD23165FFC413
:1021B00001340164FFA2CD6C006E04EEA16CFF6ED1
:1021C00006EEA16C01D01180C4D0114F01129842CB
:1021D000006401423F64FF43006501431F12A4A253
:1021E000CBD23182448354D2313F011242431E127A
:1021F000986A02FA187601467012AAD231C40134E4
:102200000164FFC501350165FF12426A03FA18A295
:10221000CBD23173FF1236A2CBD2311228A2CDD04D
:1022200011A2F0F633F2656318641BF029D34573ED
:1022300005F129D3457305F229D34512C80180441D
:10224000FF0000000000000000000000000000008F
:10225000000000000000000000000000000000007E
:10226000000000000000000000000000000000006E
:10227000000000000000000000000000000000005E
:10228000000000000000000000000000000000004E
:10229000000000000000000000000000000000003E
:1022A000000000000000000000000000000000002E
:1022B000000000000000000000000000000000001E
:1022C000000000000000000000000000000000000E
:1022D00000000000000000000000000000000000FE
:1022E00000000000000000000000000000000000EE
:1022F00000000000000000000000000000000000DE
:10230000000000000080C0C0E0E0E0E0E0E0E0C0ED
:10231000C0808000000000000080C0C0E0E0E0E07D
:10232000E0E0E0E0E0E0E0E0000000000000E0E0ED
:10233000E0E0000000000000E0E0E0E0000000005D
:10234000000000000000E0E0E0E00000000080C0CD
:10235000C0E0E0E0E0E0E0C0C080800000000000FD
:102360000000001C7FFFFFFFC7838383838383C735
:10237000FFFFFF7F000000FCFFFFFF8F070303014B
:10238000010101FFFFFFFFFF000000000000FFFF51
:10239000FFFF000000000000FFFFFFFF8080808043
:1023A000808080808080FFFFFFFF000000000F071B
:1023B0000703030303030303070F3FFFFEFCF8C0FB
:1023C000000000E0F8FCFFFF1F0F0F07070F0F1FB3
:1023D000FFFDFCF0000000030F1F1F3F3E3C3C3C94
:1023E0003C3C3CFFFFFFFFFF000000000000FFFF40
:1023F000FFFF000000000000FFFFFFFF0F070707BF
:1024000007070707070FFFFFFFFF0000000000009E
:1024100000000000000000000000C0FFFFFFFF3FC1
:10242000000000030F1F1F3F3E7C7C7C7C7C7C3EB9
:102430003F1F0F0700000000000000000000000028
:102440000000007F7F7F7F7F0000000000007F7F13
:102450007F7F0000000000007F7F7F7F0000000082
:102460000000000000007F7F7F7F000000001F3E13
:102470003E7C7C7C7C7C7C3C3E1F1F0F0703010064
:10248000000000000000000000000000000000004C
:10249000000000000000000000000000000000003C
:1024A000000000000000000000000000000000002C
:1024B000000000000000000000000000000000001C
:1024C000000000000000000000000000000000000C
:1024D00000000000000000000000000000000000FC
:1024E00000000000000000000000000000000000EC
:1024F00000000000000000000000000000000000DC
:1025000000000000000000000000000000000000CB
:1025100000000000000000000000000000000000BB
:1025200000000000000000000000000000000000AB
:10253000000000000000000000000000000000009B
:102540000069006E0100E06D016A016B018CD08CA6
:10255000E24C00122288D022403A4012226A017BCB
:10256000063C3F7D013D3F120CF00A400589E48E98
:10257000E43E4012046A1C6B0D889000E022401279
:102580003EA296F833F2652256DAB57A048120220B
:1025900056DAB57A0500EE8310833483348314A2AF
:1025A00064F31E00EEE0A0A0A0E04040404040E008
:1025B00020E080E0E020E020E0A0A0E02020E0801B
:1025C000E020E0E080E0A0E0E020202020E0A0E0AB
:1025D000A0E0E0A0E020E000432600084A26000832
:1025E0004F260008552600085A26000861260008D4
:1025F0006F260008662600086E260008742600086C
:102600007D260008832600088A26000891260008F7
:10261000982600089E260008A7260008AC26000879
:10262000B3260008BC260008C5260008CC260008F2
:10263000D3260008636869703820656D756C617415
:102640006F72005445545249530056455253004747
:10265000554553530057414C4C0048494444454E5E
:10266000004D415A4500574950454F464600564295
:1026700052495800494E56414445525300504F4E1E
:10268000473200544943544143004D45524C494E52
:1026900000424C494E4B5900424C49545A00505547
:1026A0005A5A4C4531350054414E4B0050555A5AF8
:1026B0004C4500434F4E4E45435434004252454131
:1026C0004B4F55540053595A594759004B414C45AB
:1026D00049440053515541534800A2B423E622B661
:1026E0007001D0113025120671FFD011601AD0117F
:1026F00060253100120EC4704470121CC303601EAA
:102700006103225CF515D0143F01123CD01471FF17
:10271000D0142340121CE7A12272E8A12284E9A16F
:102720002296E29E12506600F615F6073600123C1D
:10273000D0147101122AA2C4F41E6600430166047B
:10274000430266084303660CF61E00EED01470FFC9
:1027500023343F0100EED0147001233400EED01476
:10276000700123343F0100EED01470FF233400EEDB
:10277000D014730143046300225C23343F0100EE54
:10278000D01473FF43FF6303225C233400EE800008
:10279000670568066904611F6510620700EE40E086
:1027A000000040C0400000E0400040604000404069
:1027B000600020E00000C040400000E08000404099
:1027C000C00000E020006040400080E0000040C009
:1027D0008000C060000040C08000C060000080C079
:1027E00040000060C00080C040000060C000C0C069
:1027F0000000C0C00000C0C00000C0C000004040D9
:10280000404000F000004040404000F00000D01484
:10281000663576FF3600133800EEA2B48C103C1EED
:102820007C013C1E7C013C1E7C01235E4B0A237212
:1028300091C000EE71011350601B6B00D0113F007E
:102840007B01D01170013025136200EE601BD011A6
:102850007001302513748E108DE07EFF601B6B00BD
:10286000D0E13F001390D0E11394D0D17B017001EF
:10287000302513864B0013A67DFF7EFF3D0113829A
:1028800023C03F0123C07A0123C080A06D0780D2FE
:10289000400475FE4502650400EEA700F255A80449
:1028A000FA33F265F0296D326E00DDE57D05F12920
:1028B000DDE57D05F229DDE5A700F265A2B400EEB5
:1028C0006A00601900EE3723121A434F4E4E4543FB
:1028D00054342062792044617669642057494E540B
:1028E0004552A2BBF665A2B4F655690068016B00BB
:1028F0006D0F6E1FA2A5600D61326200D02FD12F27
:10290000720F321E1234D021D1217201600AA29FAF
:10291000D021D121A29FDDE1FC0ADDE14C05127E30
:102920003C04126A7BFF7DFB3D0A127A6B066D2D1B
:10293000127A3C0612987B017D053D32127A6B00BB
:102940006D0FDDE11250A2B4FB1EF06540FC129841
:102950008A0070FBF0558983A29E3900A2A1DDA4F4
:10296000A29FDDE1125060F0F06090906080808066
:102970008080808080808080808080801A1A1A1AEF
:102980001A1A1A1A1A1A1A1A1A1A121D48494444FB
:10299000454E2120312E30204279204461766964F1
:1029A0002057494E544552A43F60006140F155A460
:1029B0003F6000F05500E0A47E600C6108620FD01B
:1029C0001F7008F21E30341235F00A00E0A4C9600E
:1029D00013610D6204D0147008F21E302B124BA448
:1029E0001FFF65A42FFF5563406608C10FC20FA4E7
:1029F0002FF11EF0658400A42FF21EF06585008083
:102A000040F055A42FF11E8050F05573FF33001293
:102A10006100E060006100A477D0177008302012D8
:102A20008F600071083120128F6C006D006E00A461
:102A30003FF0657001F05523B96A10235D23CD8AFC
:102A40009087D088E0235D23CD23B9A42FF91EF011
:102A5000658100A42FFA1EF0655010132B23DF6050
:102A600020240123DF6000A42FF91EF055A42FFAC3
:102A70001EF05576FF360012A5A43FF16582008056
:102A8000153F00130180208120F15500E0A5196059
:102A9000106107620ED01F7008F21E3030130BA4B5
:102AA0003FF165841083006609240B660F83402480
:102AB0000BF00A122523DB6080240123DBA42FFA0C
:102AC0001EF06570FF23F3A441F01ED787A477D7CB
:102AD00087A42FF91EF06570FF23F3A441F01EDDDB
:102AE000E7A477DDE712A5A471DDE7FB0ADDE73B8C
:102AF0000413714D00135D7DF87CFF3B06137D4D83
:102B000018135D7D087C013B0213894E00135D7E26
:102B1000F87CFC3B0813954E18135D7E087C043B43
:102B200005135DA42FFC1EF0654000135D89C0995C
:102B3000A0135D70FFA477DDE7A44123F3F01EDD51
:102B4000E700EEA4D56024610A620BD01B7008F286
:102B50001E303C13C100EE60346110A4F1D015A406
:102B6000F6D01500EEA4FB13E1A50A6024610D6206
:102B700005D0157008F21E303C13E700EE8100818D
:102B800014800480048004801500EEF015F00730F6
:102B900000140300EEA42FF333F2656523F129D569
:102BA000656528F229D56500EE01020304080706D1
:102BB00005050607080403020101020304080706CD
:102BC0000505060708040302010000FEEEC682C6E2
:102BD000EEFEFEC6C6C6FEFEC6AA82AAC6FEC68215
:102BE0008282C6FEBAD6EED6BAFEEEEE82EEEEFED9
:102BF00082FE82FE82FEAAAAAAAAAAFEFEFEFEFE0D
:102C0000FEFEAAD6AAD6AAFE8B88F8888B00000002
:102C10000000F0484848F2EF848484EF0008080A76
:102C2000008A8AAAAA523C9292923C00E2A3E30054
:102C30008BC8A89888FA83E282FA0028B89000EF3F
:102C4000888E888F2121A160210000000000BC2215
:102C50003C28A4898AAB529751D151C00000156A13
:102C60008A8E8A6A00648A8E8A6A44AAAAAA440062
:102C7000CCAACAAAAC6E884C28CE00040C04040E60
:102C80000C1204081E639494946338A5B8A021E143
:102C900001C120C1898A522221CF282F28C802824F
:102CA000020002FF808F908E819E8091919F919172
:102CB00080FF003C4040403C007C1010107C00FF36
:102CC00000008000800000008000800000FF010103
:102CD0000101010101010101010101FFA2D2600016
:102CE0006100621ED011D021700830401208A2CDC0
:102CF000603E6101D0157105311A1218D0146300BD
:102D0000C40F740865018451650366026701884039
:102D1000780269016A046B0522B8A2C8D345D7813D
:102D20006C0122AEA2C88C708D80E99E125C4401B9
:102D3000125CD34574FFD345EA9E126A4419126AA5
:102D4000D3457401D3458754886447016503473DE3
:102D500065FD48016602481D66FEDCD1D78137015A
:102D600012448C808C456D009CD012447D013D0541
:102D7000128CFC0A22B87BFF22B83BFF124422B817
:102D80006B0022B86C1E22AE12A6FC15FC073C009C
:102D900012B000EEA2D3FB33F265F2296039610272
:102DA000D01500EE8080808080E0E0E0E0E0FF6011
:102DB000006380611F620F2232A200F31EF00AF04E
:102DC000554000121C7301330012086380A200F307
:102DD0001EF0654000121C73014300121C223212C7
:102DE0001E400272FF400471FF40067101400872EC
:102DF00001A2776AE08A126B1F81B23A0072016AFF
:102E0000F08A226B0F82B23A0071016B1F81B2D13E
:102E1000218A106B1F8B25DAB16A3F8A15DAB18BD4
:102E200020DAB100EE018000E06C004C006E0FA2D1
:102E3000036020F05500E022BE2276228E225E2220
:102E4000461210610062176304411000EEA2E8F11F
:102E50001EF06540001234F029D23571017205640C
:102E60000384123400122262177306122264038450
:102E7000E2650385D2945000EE440300EE640184C1
:102E8000E422A61246640384E2650385D2945000CE
:102E9000EE440000EE64FF84E422A6125E640C841B
:102EA000E2650C85D2945000EE440000EE64FC8490
:102EB000E422A61276640C84E2650C85D29450005C
:102EC000EE440C00EE640484E422A6128EA2E8F420
:102ED0001EF065A2E8FE1EF0556000A2E8F41EF0A8
:102EE000558E4000EE3C0012D2221C22D8221CA299
:102EF000F8FD1EF0658D0000EE7CFFCD0F00EE7D2D
:102F000001600F8D02ED9E12D8EDA112E200EE01DC
:102F100002030405060708090A0B0C0D0E0F000D2D
:102F200000010204050608090A0C0E03070B0F6EC8
:102F30000565006B066A00A30CDAB17A043A401208
:102F4000087B023B1212066C206D1FA310DCD122FD
:102F5000F660006100A312D0117008A30ED01160BA
:102F600040F015F00730001234C60F671E68016983
:102F7000FFA30ED671A310DCD16004E0A17CFE603B
:102F800006E0A17C02603F8C02DCD1A30ED67186E4
:102F9000848794603F8602611F8712471F12AC46E8
:102FA000006801463F68FF47006901D6713F011282
:102FB000AA471F12AA600580753F0012AA6001F09F
:102FC00018806061FC8012A30CD07160FE8903221E
:102FD000F6750122F6456012DE124669FF806080B8
:102FE000C53F0112CA610280153F0112E080153F02
:102FF0000112EE80153F0112E86020F018A30E7E4A
:10300000FF80E080046100D0113E00123012DE78B3
:10301000FF48FE68FF12EE7801480268016004F084
:103020001869FF1270A314F533F265F12963376450
:1030300000D3457305F229D34500EEF0008000FC73
:1030400000AA0000000000121A322E303020432E59
:1030500020456765626572672031382F382D273922
:103060003180038113A8C8F1556005A8CCF05587BD
:10307000738663277200E027946E4087E26E27878D
:10308000E1681A690C6A386B006C026D1A2750A847
:10309000EDDAB4DCD423D03E00127CA8CCF06585F8
:1030A00000C4FF845224F6C4FF8452261E6001E04F
:1030B000A127D636F7124E8E60287A6E64287A27BA
:1030C000D6122AF007400013108080800681A0816C
:1030D0000680154000129A4001129A40FF129A127F
:1030E000C88090800681B081068015400012B240F1
:1030F0000112B240FF12B212C8A8EDDAB46A386BFE
:1031000000DAB46EF387E26E0487E16E32287A80CB
:1031100080800681C081068015400012E0400112C7
:10312000E040FF12E012548090800681D08106803A
:1031300015400012F8400112F840FF12F81254A88E
:10314000EDDCD46C026D1ADCD46ECF87E26E208782
:10315000E16E19287A1254603F28A82750A8EDDAAA
:10316000B4DCD46E4087E3807080E2300012328E8F
:1031700060287A288A00E06611670AA8CA27E666EE
:10318000116710A8C827E6640065086600670FABE2
:1031900019D469AB22D569600328A83E0013C6ABD9
:1031A00019D469AB22D5697402750234301348AB67
:1031B00019D469AB22D569600328A83E0013C6ABB9
:1031C00019D469AB22D569760236161368AB19D4C7
:1031D00069AB22D569600328A83E0013C6AB19D499
:1031E00069AB22D56974FE75FE34001386AB19D421
:1031F00069AB22D569600328A83E0013C6AB19D479
:1032000069AB22D56976FE360013A61348AB22D5EA
:1032100069AB2BD569121A83706E0383E2848085B3
:10322000906E06EEA114326E03EEA1144A6E08EE03
:10323000A114626E07EEA1147A4303750243007570
:10324000FE43027402430174FE8040815027BA821B
:10325000006E0880E2300014926E07802082E24205
:1032600005149A420614B2420714EC27506EFC87EC
:10327000E287318840895017508040815071022781
:10328000BA82006E0880E2300013F2630375021404
:103290000E8040815071FE27BA82006E0880E230B5
:1032A0000013F2630075FE140E80408150700227F7
:1032B000BA82006E0880E2300013F26302740214D6
:1032C0000E8040815070FE27BA82006E0880E23086
:1032D0000013F2630174FE140E2750D8948EF00090
:1032E000EE6EF080E28031F055A8F1D454760161A1
:1032F00005F0074000F11814246EF080E28031F0F0
:1033000055A8F5D454760480A081B027BA6EF08019
:10331000E2300014D26E0C87E380C081D027BA6EF1
:10332000F080E2300014E46E3087E360FFF018F0C4
:103330001514244301643A43026400142482708308
:10334000706E0C82E280A081B027BAA8ED6EF0808A
:10335000E230001524DAB4420C7B0242007BFE42CC
:10336000087A0242047AFEDAB400EE6E80F1073188
:103370000015D4340015D48100830E3F0015568308
:103380009083B54F00158C3300157487E3838083D9
:10339000A54F0015BC330015A487E315D4838083A3
:1033A000A54F0015BC330015A487E3839083B54F68
:1033B00000158C3300157487E315D46340813241C6
:1033C0000015D4DAB47B02DAB46EF387E2620C87BC
:1033D0002100EE63108132410015D4DAB47BFEDAAD
:1033E000B46EF387E26200872100EE6320813241F0
:1033F0000015D4DAB47A02DAB46EF387E262088791
:103400002100EE63808132410015D4DAB47AFEDA0D
:10341000B46EF387E26204872100EEC1F0801230BF
:103420000015E46E0C87E382E3150EDAB4800E4FCC
:103430000015F262047AFE1614800E4F0015FE622B
:103440000C7B021614800E4F00160A62087A0216D0
:1034500014800E4F0015DC62007BFEDAB46EF38739
:10346000E2872100EE827083706E3082E280C0813C
:10347000D027BAA8ED6EF080E23000164CDCD442C2
:10348000307D0242007DFE42207C0242107CFEDC48
:10349000D400EE6E80F10731001704340017048168
:1034A00000830E4F00167E839083D54F0016B633EF
:1034B00000169C87E3838083C54F0016EA3300160D
:1034C000D087E31704838083C54F0016EA330016C4
:1034D000D087E3839083D54F0016B63300169C87C0
:1034E000E317046340813241001704DCD47D02DC21
:1034F000D487E36ECF87E26230872100EE631081CC
:103500003241001704DCD47DFEDCD487E36ECF8724
:10351000E26200872100EE6320813241001704DC63
:10352000D47C02DCD487E36ECF87E262208721005F
:10353000EE6380813241001704DCD47CFEDCD4874A
:10354000E36ECF87E26210872100EEC1F080123077
:1035500000171687E36E3087E382E31636DCD480EB
:103560000E4F00172462907CFE1746800E4F001706
:103570003062307D021746800E4F00173C62A07CFF
:10358000021746800E4F00170C62007DFEDCD46EE1
:103590004F87E2872100EE80706E0380E2800E810B
:1035A0008081946E0281E241007001800E800EA83D
:1035B000CDF01ED8948EF000EE6E00A919FE1EFE0E
:1035C0001EFE1EFE1EF365AB34FE1EFE1EFE1EFE1C
:1035D0001EF3557E013E80177400EE822383336E06
:1035E0000F8020813027BE80E2800EA8F9F01ED225
:1035F0003272023240179A82237302432000EE1780
:103600009A7002710280068106810E810E810E8100
:103610000EAB34F11EF11EF01EF06500EEA8CCF0EA
:10362000658006F0556001E0A117E000EEF1656EDF
:1036300001844382008310651083554F0082E54F5B
:1036400000180C652782554F00180C8020813084AB
:10365000E417F0F429D6757606844382008310655A
:10366000E883554F0082E54F001834650382554FBB
:103670000018348020813084E41818F429D6757637
:1036800006844382008310656483554F0082E54FB2
:103690000018548020813084E41840F429D67576CF
:1036A00006844382008310650A83554F00186E819B
:1036B0003084E41860F429D6757606F129D67500B1
:1036C000EEA8C8F16581E43F007001A8C8F155007B
:1036D000EEA8C8F3658E008E254F0000EE3E001860
:1036E000A28E108E354F0000EEA8CAF15500EE8E66
:1036F000E3620F63FF6110E2A118C4813431001846
:10370000B061108034300018B000EE6E0100EE00A1
:1037100000000005005070200050702000603060F4
:103720000060306000306030003060300020705049
:103730000020705000207070000020000000000089
:1037400000000000000000000000800000000000F9
:10375000C000000080800000C0808080C000800029
:103760000C08080808080808080808080808080DD0
:103770000C08080808080808080808080808080DC0
:103780000A6505050505E50505E505050505C50AFF
:103790000A6505050505E50505E505050505C50AEF
:1037A0000A050C08080F050C0D050808080D050E84
:1037B0000F050C08080F050C0D050808080D050A73
:1037C0000A050A650605950A0A350505C50A35057F
:1037D00005950A650505950A0A350506C50A050A0F
:1037E0000A050F0508080808080C080F050808084E
:1037F00008080F0508080C080808080F050F050A37
:103800000A7505B505050505C50A6505B505E5058E
:1038100005E505B505C50A6505050505B505D50A1E
:103820000A050C080808080D050F050C080F050807
:103830000F0508080D050F050C080808080D050AF6
:103840000F050F650505C50A35E5950A6505B0053F
:1038500005B505C50A35E5950A650505C50F050FCA
:10386000077405D5080F050E0F05080F050C08088D
:1038700008080D05080F05080F05080F7505D40782
:103880000A050A350505F50505B50505D508080D30
:103890000C080F750505B50505F50505950A050A1A
:1038A0000A050808080D050C0808080D3505C50AA5
:1038B0000A6505950C0808080D050C08080F050A8F
:1038C0000A750506C50A050808080808080F05084E
:1038D0000F050808080808080F050A650605D50A37
:1038E0000A050C0D050A3505050505E50505F5056F
:1038F00005F50505E505050505950A050C0D050AFF
:103900000A05080F0508080808080F050C0D05082A
:103910000F050C0D0508080808080F05080F050A13
:103920000A350505B5050505050505950A0A350598
:1039300005950A0A35050505050505B50505950A28
:103940000808080808080808080808080F080808F0
:1039500008080F0808080808080808080808080FD9
:103960003C429999423C01100F78843232847800AD
:1039700010E078FCFEFE84780010E01225535041E0
:10398000434520494E56414445525320302E39314B
:103990002042792044617669642057494E5445524B
:1039A000600061006208A3DDD0187108F21E3120AA
:1039B000122D700861003040122D69056C156E00E3
:1039C0002391600AF015F0073000124B23917E011D
:1039D00012456600681C69006A046B0A6C046D3C41
:1039E0006E0F00E023752351FD156004E09E127DEB
:1039F0002375380078FF23756006E09E128B2375CF
:103A00003839780123753600129F6005E09E12E96F
:103A10006601651B8480A3D9D451A3D9D45175FF05
:103A200035FF12AD660012E9D4513F0112E9D451BD
:103A300066008340730383B562F883226208330013
:103A400012C9237D8206430812D3331012D5237D79
:103A50008206331812DD237D8206432012E73328C5
:103A600012E9237D3E0013077906491869006A04AC
:103A70006B0A6C047DF46E0F00E023512375FD1575
:103A8000126FF7073700126FFD1523518BA43B12FD
:103A9000131B7C026AFC3B0213237C026A04235141
:103AA0003C18126F00E0A4DD60146108620FD01FA3
:103AB0007008F21E302C133360FFF015F007300051
:103AC0001341F00A00E0A706FE651225A3C1F91E06
:103AD00061082369810623698106236981062369B8
:103AE0007BD000EE80E080123000DBC67B0C00EE65
:103AF000A3D9601CD80400EE23518E232351600506
:103B0000F018F015F0073000138900EE6A008DE020
:103B10006B04E9A11257A60CFD1EF06530FF13AF30
:103B20006A006B046D016E011397A50AF01EDBC6D7
:103B30007B087D017A013A07139700EE3C7EFFFF78
:103B400099997EFFFF2424E77EFF3C3C7EDB814287
:103B50003C7EFFDB10387CFE00007F003F007F00D2
:103B600000000101010303030300003F2020202087
:103B7000202020203F0808FF0000FE00FC00FE007F
:103B800000007E4242626262620000FF00000000AC
:103B900000000000FF0000FF007D00417D057D7DED
:103BA0000000C2C2C6446C28380000FF00000000BC
:103BB00000000000FF0000FF00F71014F7F70404F6
:103BC00000007C44FEC2C2C2C20000FF0000000030
:103BD00000000000FF0000FF00EF2028E8E82F2F82
:103BE0000000F985C5C5C5C5F90000FF000000004B
:103BF00000000000FF0000FF00BE00203020BEBE1D
:103C00000000F704E7858584F40000FF0000000051
:103C100000000000FF0000FF00007F003F007F0069
:103C20000000EF28EF00E0606F0000FF00000000E0
:103C300000000000FF0000FF0000FE00FC00FE008E
:103C40000000C000C0C0C0C0C00000FC04040404E8
:103C500004040404FC1010FFF981B98B9A9AFA004D
:103C6000FA8A9A9A9B99F8E62525F4343434001799
:103C70001434373626C7DF50505CD8D8DF00DF1148
:103C80001F121B19D97C44FE868686FC84FE828224
:103C9000FEFE80C0C0C0FEFC82C2C2C2FCFE80F834
:103CA000C0C0FEFE80F0C0C0C0FE80BE8686FE861C
:103CB00086FE8686861010101010101818184848B6
:103CC000789C90B0C0B09C8080C0C0C0FEEE929244
:103CD000868686FE82868686867C828686867CFEB0
:103CE00082FEC0C0C07C82C2CAC47AFE86FE909C9E
:103CF00084FEC0FE0202FEFE10303030308282C2EE
:103D0000C2C2FE828282EE38108686969292EE823F
:103D100044383844828282FE303030FE021EF08009
:103D2000FE0000000006060000006060C000000009
:103D30000000001818181800187CC60C180018008D
:103D400000FEFE0000FE82868686FE08080818181F
:103D500018FE02FEC0C0FEFE021E0606FE84C4C49B
:103D6000FE0404FE80FE0606FEC0C0C0FE82FEFE0B
:103D700002020606067C44FE8686FEFE82FE0606DB
:103D80000644FE4444FE44A8A8A8A8A8A8A86C5AC3
:103D9000000C18A8304E7E001218666CA85A6654A3
:103DA00024660048481812A80690A812007E301217
:103DB000A884304E721866A8A8A8A8A8A89054781D
:103DC000A848786C72A812186C72665490A8722A6F
:103DD00018A8304E7E001218666CA87254A85A6655
:103DE000187E184E72A8722A183066A8304E7E00CF
:103DF0006C30544E9CA8A8A8A8A8A8A848547E181F
:103E0000A890547866A86C2A305AA88430722AA8E0
:103E1000D8A8004E12A8E4A2A8004E12A86C2A54FA
:103E20005472A88430722AA8DE9CA8722A18A80CA2
:103E300054485A78721866A866185A5466726CA864
:103E4000722A0072A8722A18A8304E7E00121866D4
:103E50006CA8006618A8304E0C6618006C304E2412
:103E6000A8722A183066A81E54660C189CA8245400
:103E70005412A842780C3CA8AEA8A8A8A8A8A8A844
:103E8000FF00000000000000000000000000000033
:103E90000000000000000000000000000000000022
:103EA0000000000000000000000000000000000012
:103EB0000000000000000000000000000000000002
:103EC00000000000000000000000000000000000F2
:103ED0000000000000000000000080C0E0E0F0F8FA
:103EE000F8F8F8F8F0E0E0800000000000000000C2
:103EF00000000000000000000000000000000000C2
:103F0000000000000000000000000000808080C071
:103F1000C0E0E0E0F0F0F0F0F0F0F0F0F0F0F0F001
:103F2000D8E06070301800000000000000000000C1
:103F300080808080000000E0FCFEFFFF7F0703011F
:103F4000010101030F3FFFFFFFFEF0C00000000072
:103F50000000000000000000000000808080C0C061
:103F6000E0E0E0E0F0F0F0F8F8FCFEEEF7FBFDEF4B
:103F7000F7EFD7AF57AF57AF5FEFDFAF5FAF5FBFC1
:103F80005FBE5EBE5EB878E85CAC56AA57AA55AB79
:103F9000D5AAD5ABD7EB556B576BD7AFDCECD8B008
:103FA000608000000000017FFFFFFFFFF8000000BD
:103FB00000387CFCFCFEF6FEF6FADFEFFFFFFFFFA9
:103FC000FFFFDFFFCF0F0F1F1F1F1FBF3F3F3F7FB1
:103FD000FFEBFF1B170A0D0A0D3A7DEBDFFEFDAA72
:103FE000D5EA552A351A0D0E01020303010101011C
:103FF000000000000000000000000000000080C180
:1040000071ABFF00000000E0FFFFFFFFFF3F00007B
:10401000000000A9FFFFDFAF57AA55FFFFDFCFFB6E
:10402000EFEFCFC3C301000000401031C7FE78D0CE
:10403000E0E37FFF7EB8E08000000001071E73C14F
:10404000001818101818181800000090D0B060B0B0
:1040500070B070D8988080080C0E0E0E0E07070FF7
:10406000FDEFFF0000003C7FFF7F3F1F03000000CB
:10407000000000010387FFFEFDFAF7FBFFFFFFFFD3
:10408000FFFEFEFEFFFFFF7E7C7C7C7EFFFFFFFECF
:10409000FFFE7FAEFD1E010080C060201038FEA72D
:1040A00020206060404040C0C0C0FCABD5AAD5EA2B
:1040B000FDAED5AA55AA55AB57AB56AE56AC54ACCF
:1040C0005FAF5FA854AC5CA850E0C0800000000067
:1040D00000000000000E0F0F0F0F0507070303017C
:1040E00001000001010100000000000000000101CA
:1040F000010103060D1B1C0F1F3B4080008081FF48
:104100007C202060604040404040606F756B552BC4
:10411000177E352B356B352B352B352A372B376BE7
:10412000D5AA57AA55AE7DEAD5AA55AB56FEF800DA
:10413000000000000000000000000000000000007F
:10414000000000000000000000000000000000006F
:10415000000000000000000000000000000101005D
:10416000000000000000000000000000000000004F
:10417000000000000000000000000000000000003F
:1041800000000103051A356A556B773E0D070300E1
:10419000121A4A4D4E203139393120534F46545767
:1041A00041524553208080FF00006300670000E01B
:1041B000A21760006100D01171FFD0117101700869
:1041C000304012267101A215D01270FFD01270017A
:1041D0007102311F12386008611062046437650F84
:1041E0006602D011D4516801E8A162026802E8A118
:1041F00062046807E8A16201680AE8A16203680B2B
:10420000E8A16602680FE8A16604680CE8A16601EF
:10421000680DE8A16603420171FF420270FF42038C
:10422000710142047001460175FF460274FF4603A6
:10423000750146047401D0113F0012B4D4513F00FF
:1042400012B81256770112BA73016800780138006B
:1042500012BC00E060086104F329D0156034F7292E
:10426000D01568007801380012D4430812E44708DA
:1042700012E4121E12E41219204D45524C494E20F0
:1042800042792044617669642057494E5445522250
:10429000F9A31D6010610022CBA331600B611B22CA
:1042A000CB640422DF6500622822C1C2038020A300
:1042B00059F51EF0556017610863018322330070C1
:1042C0000A630283223300710AA317D016621422F4
:1042D000C1D016620522C1750154501235650060C7
:1042E000176108A317F30A33041279630012973396
:1042F000051283700A630112973307128D710A63E6
:1043000002129733081269700A710A6303D01662A9
:104310001422C1D016A359F51EF065750150301254
:10432000B55540126922DF7401122D22F9A34560B0
:1043300010610E22CB12BFF215F207320012C30039
:10434000EE83006205D015F21E700885307520508E
:104350005012CF00EEA359834073FDF333F265F1A1
:1043600029602B631BD0357005F229D03500EEA3F0
:104370000F60176107D018700AD018710AD0187032
:10438000F6D01800EEFF818181818181FF7E7E7EE3
:104390007E7E7EDBAA8BCBCBEF088F0DECA0A0B08E
:1043A00030BE5F5151D9D983828382FBE8088805EA
:1043B000E2BEA0B8203E80808080F8F785B795F5F2
:1043C00076545654563A2A2A2A39B6A5B6A5351235
:1043D000182057414C4C2062792044617669642052
:1043E00057494E54455220A2E460006100621ED03D
:1043F00011D021700830401220A2DF603E6101D050
:10440000157105311A1230D0146300C40F74086599
:104410000184516503660267018840780269016A78
:10442000046B00A2DAD345D781FC0A22C46C01FCDC
:1044300015FC073C001262A2DA8C708D80E99E1296
:104440007C4401127CD34574FED345EA9E128A4413
:1044500019128AD3457402D345875488644701658D
:1044600003473D65FD48016602481D66FEDCD1D765
:10447000813701125E8C808C456D009CD012BE7D10
:10448000013D0512ACFC0A22C46B00125C22C47B05
:1044900001125CA2E5FB336C346D02F265F129DC9C
:1044A000D57C05F229DCD500EE8080808080E0E0BC
:1044B000E0E0E0FF6E0565006B066A00A30CDAB170
:1044C0007A043A4012087B023B1212066C206D1FE0
:1044D000A310DCD122F660006100A312D011700895
:1044E000A30ED0116040F015F00730001234C60F53
:1044F000671E680169FFA30ED671A310DCD16004AA
:10450000E0A17CFE6006E0A17C02603F8C02DCD171
:10451000A30ED67186848794603F8602611F87123E
:10452000471F12AC46006801463F68FF470069011B
:10453000D6713F0112AA471F12AA600580753F007D
:1045400012AA6001F018806061FC8012A30CD07187
:1045500060FE890322F6750122F6456012DE1246DE
:1045600069FF806080C53F0112CA610280153F016A
:1045700012E080153F0112EE80153F0112E8602025
:10458000F018A30E7EFF80E080046100D0113E0091
:10459000123012DE78FF48FE68FF12EE7801480202
:1045A00068016004F01869FF1270A314F533F26516
:1045B000F12963376400D3457305F229D34500EE32
:1045C000E0008000FC00AA0000000000121854491E
:1045D00043544143206279204461766964205749FD
:1045E0004E5445526B006C0080B081C0A3E6F1557B
:1045F000A3C4FF65A3B4FF55A3E6F1658B008C103F
:1046000000E06E0160136103A39AD0117008302B93
:10461000123E601371083123123E60136103A39BA5
:10462000D01F7008303312546013710FD01A700805
:10463000303312602366F00A8100A3B4F01EF065E7
:104640004000128A227C126A6010F018F015F00700
:104650003000128200EE60028E0380E0F055A3D499
:10466000801070FF8004F01EF165A3AA3E03A3AF83
:10467000D01522C83A00121CA3B461006200630185
:10468000F06530007101F31E7201321012B4311066
:10469000126A121C6A00A3B46001F01EF86569007A
:1046A00089042344891423448924234A69008934D2
:1046B0002344894423448954234A69008964234458
:1046C000897423448984234A690089642344893492
:1046D00023448904234A6900897423448944234478
:1046E0008914234A690089842344895423448924F2
:1046F000234A690089842344894423448904234A42
:10470000690089642344894423448924234A00EEB0
:10471000890E890E00EE49151354493F135A00EED5
:1047200023667B01135E23667C0123666A01F00A1F
:1047300000EE6305640AA3AFD34563027406A3E6E3
:10474000FB3323886332640AA3AAD345632F74061C
:10475000A3E6FC33F265F0292394F1292394F2298E
:10476000D345730500EE7F808080808080808080CC
:104770008080808080801C2222221C221408142227
:104780000100000000000000000001010101010122
:104790000100000000000000000001010101010112
:1047A00013051B052305130D1B0D230D13151B15D9
:1047B00023150000DA260008904100084125000872
:1047C000CF4300088A290008B81B0008B444000839
:1047D00073210008104800087B3900084D200008AC
:1047E000CC4500087642000847300008C61E000885
:1047F000272E0008DE1B00080E1E0008C82800082F
:104800002F2F0008A8170008AF2D0008DC2C000887
:1048100000E023B66007E09E1204680067032346A9
:10482000224A22C02366238A23ACF00A225A225A43
:1048300022D022883A00121C6C0123AC77FF23ACF3
:104840006078F015F007300012343700121C23ACEA
:104850006007E09E1242120A00FD69106002A25435
:10486000D09500EE8080808080006001E0A1126819
:104870006004E0A1127200EE809070FF400000EE34
:10488000127C80907001401B00EE127C6102A254E9
:10489000D195D105890000EE80A070FE300000EEB9
:1048A00080B080954F0000EE8100620581253F00B9
:1048B00000EEA2BAF01EF0658D004B016D014B1E9B
:1048C0006DFF6C01600AF01800EEFFFF00010100AF
:1048D000CB207B016A046C016D01A364DAB100EEA8
:1048E00080A081B08AC48BD4A3644B016D014B1EA0
:1048F0006DFF4A3E6CFF4A006C01D011DAB14F00E7
:1049000000EE80A0612180154F0000EE80A081B0F4
:1049100070DE71FF62FF63FF6403720180453F0038
:10492000130A730181453F001312802081308024D7
:1049300080248134813470227101A386D0137EFFDC
:1049400060008C076002F018238A7801238A3E00F9
:1049500000EE236600EE00E060006100621FA364C9
:10496000D011D0217001303F1350D011710131208E
:10497000135A00EE80006101630AA3866022620779
:10498000D013700372FF32001370710373FF330092
:10499000136C6E4600EEE0A0E000A3A6F833F265CB
:1049A00063036402F029D3457305F129D3457305E8
:1049B000F229D34500EE00000000000060146102FF
:1049C000F729D01500EE600A610C62096305A3CED9
:1049D000D015F31E700572FF320013C000EE9090E8
:1049E000909060E090E090E0E090E09090202020B7
:1049F000202090906090900000600000F090F08087
:104A000080F080F010F0E090E09090000000000056
:104A100010262026103E6B5F6B3E1C3E7C3E1C1811
:104A20003C7E3C1804447F44040C5E7F5E0C1C3EBC
:104A30003E3E1CFFE7C3E7FF08082A1C08081C3E8F
:104A4000080F30484C31030629792906081C3E0816
:104A500008303F01627C081C361C08007F3E1C08A1
:104A6000081C3E7F0014367F3614005F005F00068E
:104A70000F7F017F404A5529017C7C7C7C7C94B669
:104A8000FFB69404067F060410307F30100000004B
:104A90000000081C2A08080E08080808081C081C42
:104AA00008181C1E1C181838783818000000000060
:104AB00000005F00000007000700147F147F14242B
:104AC0002A7F2A12231308646236495522500005B2
:104AD000030000001C2241000041221C00082A1C87
:104AE0002A0808083E080800503000000808080896
:104AF00008006060000020100804023E5149453E55
:104B000000427F400042615149462141454B3118E6
:104B100014127F1027454545393C4A4949300171F7
:104B20000905033649494936064949291E003636E2
:104B3000000000563600000008142241141414141A
:104B40001441221408000201510906324979413EFC
:104B50007E1111117E7F494949363E414141227FF4
:104B60004141221C7F494949417F090901013E41D8
:104B70004151327F0808087F00417F4100204041B9
:104B80003F017F081422417F404040407F020402E1
:104B90007F7F0408107F3E4141413E7F090909069D
:104BA0003E4151215E7F0919294646494949310153
:104BB000017F01013F4040403F1F2040201F7F20D8
:104BC00018207F63140814630304780403615149B7
:104BD000454300007F4141020408102041417F000D
:104BE0000004020102044040404040000102040071
:104BF00020545454787F484444383844444420383E
:104C00004444487F3854545418087E09010208145B
:104C100054543C7F0804047800447D400020404404
:104C20003D00007F10284400417F40007C041804B0
:104C3000787C0804047838444444387C14141408FC
:104C4000081414187C7C08040408485454542004A4
:104C50003F4440203C4040207C1C2040201C3C40E5
:104C600030403C44281028440C5050503C4464547C
:104C70004C44000836410000007F00000041360827
:104C80000004020408047F4141417F017F09443848
:104C9000447C46050C000050300000780A090050A2
:104CA00030005030400040004002027F02022222C9
:104CB0007F2222143E55412213086402617E017F47
:104CC000483000000605007F087F48307E1012291A
:104CD00046017F1108703F2060203F023F0A4830A4
:104CE0000000060500000503000006050006050596
:104CF000030005031C3E3E3E1C000808080008088F
:104D00000808080201510906791127117978047CF5
:104D1000502000050600007C107C50207C102A41A9
:104D200000027F1208703C2060203C000000000060
:104D30008C5122110C88522412083070413F0124FA
:104D400018241824427E4202030000770000004A23
:104D50005529007E4B4A4B427E99A5A57E3E45458E
:104D6000413208142208140808080818080808081E
:104D7000087EBD95A97E42437E4342000705070099
:104D800000242E240000417F410000447D400008A3
:104D900078080C007C0810081C06097F017F0000C1
:104DA00008000038555455187C10207B03385454A3
:104DB0004420140822140820443C02004649494972
:104DC00031485454542000457C41007E1111117E1D
:104DD0007F494949307F494949367F0101010160D6
:104DE0003E213F607F4949494167187F186722414A
:104DF0004949367F1008047F7F1009047F7F08141B
:104E00002241403E01017E7F0204027F7F080808A4
:104E10007F3E4141413E7F0101017F7F0909090633
:104E20003E4141412201017F0101274848483F1E80
:104E3000217F211E63140814633F20203F401F1070
:104E400010107F7F407F407F3F203F207F017F44C5
:104E500044387F447C007F7F4444443822414949A0
:104E60003E7F087F417F462919097F20545454789A
:104E70003C4A4A4B307C545458207C04040404605F
:104E800038243C60385454541874087C08742844FE
:104E90005454287C2010087C7C2112097C7C101042
:104EA0002844407804047C7C0810087C7C10101096
:104EB0007C38444444387C0404047C7C1414140876
:104EC000384444442804047C04040C5050503C18DA
:104ED000247C241844281028443C20203C401C20DA
:104EE00020207C7C407C407C3C203C207C047C4816
:104EF00048307C4848307C7C4848483028445454EA
:104F0000387C38444438483414147C002D0D000893
:104F1000710D00087D0D00089D0D0008B90D0008F9
:104F2000D50D0008F50D0008010E0008FD10000861
:104F3000110E0008310E00083D0E00086111000836
:104F40004D0E0008E10E0008210F00086510000852
:104F500069100008731000087D100008891000080F
:104F60009D100008B5100008CD100008E5100008DD
:104F7000E5100008E5100008E5100008E51000083D
:104F8000E5100008E9100008E5100008F090909086
:104F9000F02060202070F010F080F0F010F010F0A1
:104FA0009090F01010F080F010F0F080F090F0F0A1
:104FB00010204040F090F090F0F090F010F0F09061
:104FC000F09090E090E090E0F0808080F0E09090B1
:104FD00090E0F080F080F0F080F08080504432204B
:104FE000423420202020005042332042352020200F
:104FF00020005042342042362020202000504235EC
:1050000020423320202020005042362042322020EF
:1050100020200050423720423120202020005041E3
:105020003820555020202020005043392052494735
:105030004854005043313220444F574E00504331C2
:0850400031204C4546540000EC
:1056A2007465737400000000B53B121FE5559A152E
:0C56B20015CD5B073313490500366E016F
:04000005080014B12A
:00000001FF
